{
    "abi": [
        {
            "inputs": [],
            "stateMutability": "payable",
            "type": "constructor"
        },
        {
            "inputs": [
                {
                    "internalType": "uint256",
                    "name": "sent",
                    "type": "uint256"
                },
                {
                    "internalType": "uint256",
                    "name": "maxAvailable",
                    "type": "uint256"
                }
            ],
            "name": "InsufficientBalance",
            "type": "error"
        },
        {
            "anonymous": false,
            "inputs": [
                {
                    "indexed": true,
                    "internalType": "address",
                    "name": "from",
                    "type": "address"
                },
                {
                    "indexed": true,
                    "internalType": "address",
                    "name": "to",
                    "type": "address"
                },
                {
                    "indexed": false,
                    "internalType": "uint256",
                    "name": "value",
                    "type": "uint256"
                }
            ],
            "name": "Transfer",
            "type": "event"
        },
        {
            "inputs": [
                {
                    "internalType": "address payable[]",
                    "name": "addresses",
                    "type": "address[]"
                },
                {
                    "internalType": "uint256[]",
                    "name": "amounts",
                    "type": "uint256[]"
                }
            ],
            "name": "sendAll",
            "outputs": [],
            "stateMutability": "payable",
            "type": "function"
        }
    ],
    "devdoc": {
        "kind": "dev",
        "methods": {},
        "version": 1
    },
    "evm": {
        "assembly": "    /* \"MultiSend.sol\":27:1389  contract MultiSend {... */\n  mstore(0x40, 0x80)\n    /* \"MultiSend.sol\":271:280  msg.value */\n  callvalue\n    /* \"MultiSend.sol\":257:268  total_value */\n  0x00\n    /* \"MultiSend.sol\":257:280  total_value = msg.value */\n  dup2\n  swap1\n  sstore\n  pop\n    /* \"MultiSend.sol\":27:1389  contract MultiSend {... */\n  dataSize(sub_0)\n  dup1\n  dataOffset(sub_0)\n  0x00\n  codecopy\n  0x00\n  return\nstop\n\nsub_0: assembly {\n        /* \"MultiSend.sol\":27:1389  contract MultiSend {... */\n      mstore(0x40, 0x80)\n      jumpi(tag_1, lt(calldatasize, 0x04))\n      shr(0xe0, calldataload(0x00))\n      dup1\n      0x7156d672\n      eq\n      tag_2\n      jumpi\n    tag_1:\n      0x00\n      dup1\n      revert\n        /* \"MultiSend.sol\":771:1386  function sendAll (address payable[] memory addresses, uint[] memory amounts) payable public {... */\n    tag_2:\n      tag_3\n      0x04\n      dup1\n      calldatasize\n      sub\n      dup2\n      add\n      swap1\n      tag_4\n      swap2\n      swap1\n      tag_5\n      jump\t// in\n    tag_4:\n      tag_6\n      jump\t// in\n    tag_3:\n      stop\n    tag_6:\n        /* \"MultiSend.sol\":902:909  amounts */\n      dup1\n        /* \"MultiSend.sol\":902:916  amounts.length */\n      mload\n        /* \"MultiSend.sol\":882:891  addresses */\n      dup3\n        /* \"MultiSend.sol\":882:898  addresses.length */\n      mload\n        /* \"MultiSend.sol\":882:916  addresses.length == amounts.length */\n      eq\n        /* \"MultiSend.sol\":874:971  require(addresses.length == amounts.length, \"Must provide same number of addresses and amounts.\") */\n      tag_8\n      jumpi\n      mload(0x40)\n      0x08c379a000000000000000000000000000000000000000000000000000000000\n      dup2\n      mstore\n      0x04\n      add\n      tag_9\n      swap1\n      tag_10\n      jump\t// in\n    tag_9:\n      mload(0x40)\n      dup1\n      swap2\n      sub\n      swap1\n      revert\n    tag_8:\n        /* \"MultiSend.sol\":984:995  uint amtSum */\n      0x00\n        /* \"MultiSend.sol\":998:1017  amountsSum(amounts) */\n      tag_11\n        /* \"MultiSend.sol\":1009:1016  amounts */\n      dup3\n        /* \"MultiSend.sol\":998:1008  amountsSum */\n      tag_12\n        /* \"MultiSend.sol\":998:1017  amountsSum(amounts) */\n      jump\t// in\n    tag_11:\n        /* \"MultiSend.sol\":984:1017  uint amtSum = amountsSum(amounts) */\n      swap1\n      pop\n        /* \"MultiSend.sol\":1048:1054  amtSum */\n      dup1\n        /* \"MultiSend.sol\":1034:1045  total_value */\n      sload(0x00)\n        /* \"MultiSend.sol\":1034:1054  total_value < amtSum */\n      lt\n        /* \"MultiSend.sol\":1030:1169  if (total_value < amtSum) {... */\n      iszero\n      tag_13\n      jumpi\n        /* \"MultiSend.sol\":1109:1115  amtSum */\n      dup1\n        /* \"MultiSend.sol\":1140:1151  total_value */\n      sload(0x00)\n        /* \"MultiSend.sol\":1072:1161  InsufficientBalance({... */\n      mload(0x40)\n      0xcf47918100000000000000000000000000000000000000000000000000000000\n      dup2\n      mstore\n      0x04\n      add\n      tag_14\n      swap3\n      swap2\n      swap1\n      tag_15\n      jump\t// in\n    tag_14:\n      mload(0x40)\n      dup1\n      swap2\n      sub\n      swap1\n      revert\n        /* \"MultiSend.sol\":1030:1169  if (total_value < amtSum) {... */\n    tag_13:\n        /* \"MultiSend.sol\":1198:1204  uint i */\n      0x00\n        /* \"MultiSend.sol\":1193:1381  for (uint i = 0; i < addresses.length; i++) {... */\n    tag_16:\n        /* \"MultiSend.sol\":1214:1223  addresses */\n      dup4\n        /* \"MultiSend.sol\":1214:1230  addresses.length */\n      mload\n        /* \"MultiSend.sol\":1210:1211  i */\n      dup2\n        /* \"MultiSend.sol\":1210:1230  i < addresses.length */\n      lt\n        /* \"MultiSend.sol\":1193:1381  for (uint i = 0; i < addresses.length; i++) {... */\n      iszero\n      tag_17\n      jumpi\n        /* \"MultiSend.sol\":1261:1268  amounts */\n      dup3\n        /* \"MultiSend.sol\":1269:1270  i */\n      dup2\n        /* \"MultiSend.sol\":1261:1271  amounts[i] */\n      dup2\n      mload\n      dup2\n      lt\n      tag_19\n      jumpi\n      tag_20\n      tag_21\n      jump\t// in\n    tag_20:\n    tag_19:\n      0x20\n      mul\n      0x20\n      add\n      add\n      mload\n        /* \"MultiSend.sol\":1246:1257  total_value */\n      0x00\n      dup1\n        /* \"MultiSend.sol\":1246:1271  total_value -= amounts[i] */\n      dup3\n      dup3\n      sload\n      tag_22\n      swap2\n      swap1\n      tag_23\n      jump\t// in\n    tag_22:\n      swap3\n      pop\n      pop\n      dup2\n      swap1\n      sstore\n      pop\n        /* \"MultiSend.sol\":1280:1310  send(addresses[i], amounts[i]) */\n      tag_24\n        /* \"MultiSend.sol\":1285:1294  addresses */\n      dup5\n        /* \"MultiSend.sol\":1295:1296  i */\n      dup3\n        /* \"MultiSend.sol\":1285:1297  addresses[i] */\n      dup2\n      mload\n      dup2\n      lt\n      tag_25\n      jumpi\n      tag_26\n      tag_21\n      jump\t// in\n    tag_26:\n    tag_25:\n      0x20\n      mul\n      0x20\n      add\n      add\n      mload\n        /* \"MultiSend.sol\":1299:1306  amounts */\n      dup5\n        /* \"MultiSend.sol\":1307:1308  i */\n      dup4\n        /* \"MultiSend.sol\":1299:1309  amounts[i] */\n      dup2\n      mload\n      dup2\n      lt\n      tag_27\n      jumpi\n      tag_28\n      tag_21\n      jump\t// in\n    tag_28:\n    tag_27:\n      0x20\n      mul\n      0x20\n      add\n      add\n      mload\n        /* \"MultiSend.sol\":1280:1284  send */\n      tag_29\n        /* \"MultiSend.sol\":1280:1310  send(addresses[i], amounts[i]) */\n      jump\t// in\n    tag_24:\n        /* \"MultiSend.sol\":1348:1357  addresses */\n      dup4\n        /* \"MultiSend.sol\":1358:1359  i */\n      dup2\n        /* \"MultiSend.sol\":1348:1360  addresses[i] */\n      dup2\n      mload\n      dup2\n      lt\n      tag_30\n      jumpi\n      tag_31\n      tag_21\n      jump\t// in\n    tag_31:\n    tag_30:\n      0x20\n      mul\n      0x20\n      add\n      add\n      mload\n        /* \"MultiSend.sol\":1324:1373  Transfer(address(this), addresses[i], amounts[i]) */\n      0xffffffffffffffffffffffffffffffffffffffff\n      and\n        /* \"MultiSend.sol\":1341:1345  this */\n      address\n        /* \"MultiSend.sol\":1324:1373  Transfer(address(this), addresses[i], amounts[i]) */\n      0xffffffffffffffffffffffffffffffffffffffff\n      and\n      0xddf252ad1be2c89b69c2b068fc378daa952ba7f163c4a11628f55a4df523b3ef\n        /* \"MultiSend.sol\":1362:1369  amounts */\n      dup6\n        /* \"MultiSend.sol\":1370:1371  i */\n      dup5\n        /* \"MultiSend.sol\":1362:1372  amounts[i] */\n      dup2\n      mload\n      dup2\n      lt\n      tag_32\n      jumpi\n      tag_33\n      tag_21\n      jump\t// in\n    tag_33:\n    tag_32:\n      0x20\n      mul\n      0x20\n      add\n      add\n      mload\n        /* \"MultiSend.sol\":1324:1373  Transfer(address(this), addresses[i], amounts[i]) */\n      mload(0x40)\n      tag_34\n      swap2\n      swap1\n      tag_35\n      jump\t// in\n    tag_34:\n      mload(0x40)\n      dup1\n      swap2\n      sub\n      swap1\n      log3\n        /* \"MultiSend.sol\":1232:1235  i++ */\n      dup1\n      dup1\n      tag_36\n      swap1\n      tag_37\n      jump\t// in\n    tag_36:\n      swap2\n      pop\n      pop\n        /* \"MultiSend.sol\":1193:1381  for (uint i = 0; i < addresses.length; i++) {... */\n      jump(tag_16)\n    tag_17:\n      pop\n        /* \"MultiSend.sol\":863:1386  {... */\n      pop\n        /* \"MultiSend.sol\":771:1386  function sendAll (address payable[] memory addresses, uint[] memory amounts) payable public {... */\n      pop\n      pop\n      jump\t// out\n        /* \"MultiSend.sol\":294:498  function amountsSum (uint[] memory amounts) private returns (uint ret) {... */\n    tag_12:\n        /* \"MultiSend.sol\":355:363  uint ret */\n      0x00\n        /* \"MultiSend.sol\":376:384  uint sum */\n      dup1\n        /* \"MultiSend.sol\":387:388  0 */\n      0x00\n        /* \"MultiSend.sol\":376:388  uint sum = 0 */\n      swap1\n      pop\n        /* \"MultiSend.sol\":405:411  uint i */\n      0x00\n        /* \"MultiSend.sol\":401:476  for(uint i = 0; i < amounts.length; i++) {... */\n    tag_39:\n        /* \"MultiSend.sol\":421:428  amounts */\n      dup4\n        /* \"MultiSend.sol\":421:435  amounts.length */\n      mload\n        /* \"MultiSend.sol\":417:418  i */\n      dup2\n        /* \"MultiSend.sol\":417:435  i < amounts.length */\n      lt\n        /* \"MultiSend.sol\":401:476  for(uint i = 0; i < amounts.length; i++) {... */\n      iszero\n      tag_40\n      jumpi\n        /* \"MultiSend.sol\":458:465  amounts */\n      dup4\n        /* \"MultiSend.sol\":466:467  i */\n      dup2\n        /* \"MultiSend.sol\":458:468  amounts[i] */\n      dup2\n      mload\n      dup2\n      lt\n      tag_42\n      jumpi\n      tag_43\n      tag_21\n      jump\t// in\n    tag_43:\n    tag_42:\n      0x20\n      mul\n      0x20\n      add\n      add\n      mload\n        /* \"MultiSend.sol\":451:468  sum += amounts[i] */\n      dup3\n      tag_44\n      swap2\n      swap1\n      tag_45\n      jump\t// in\n    tag_44:\n      swap2\n      pop\n        /* \"MultiSend.sol\":437:440  i++ */\n      dup1\n      dup1\n      tag_46\n      swap1\n      tag_37\n      jump\t// in\n    tag_46:\n      swap2\n      pop\n      pop\n        /* \"MultiSend.sol\":401:476  for(uint i = 0; i < amounts.length; i++) {... */\n      jump(tag_39)\n    tag_40:\n      pop\n        /* \"MultiSend.sol\":489:492  sum */\n      dup1\n        /* \"MultiSend.sol\":482:492  return sum */\n      swap2\n      pop\n      pop\n        /* \"MultiSend.sol\":294:498  function amountsSum (uint[] memory amounts) private returns (uint ret) {... */\n      swap2\n      swap1\n      pop\n      jump\t// out\n        /* \"MultiSend.sol\":644:763  function send(address payable receiverAddr, uint receiverAmnt) private {... */\n    tag_29:\n        /* \"MultiSend.sol\":722:734  receiverAddr */\n      dup2\n        /* \"MultiSend.sol\":722:743  receiverAddr.transfer */\n      0xffffffffffffffffffffffffffffffffffffffff\n      and\n        /* \"MultiSend.sol\":722:757  receiverAddr.transfer(receiverAmnt) */\n      0x08fc\n        /* \"MultiSend.sol\":744:756  receiverAmnt */\n      dup3\n        /* \"MultiSend.sol\":722:757  receiverAddr.transfer(receiverAmnt) */\n      swap1\n      dup2\n      iszero\n      mul\n      swap1\n      mload(0x40)\n      0x00\n      mload(0x40)\n      dup1\n      dup4\n      sub\n      dup2\n      dup6\n      dup9\n      dup9\n      call\n      swap4\n      pop\n      pop\n      pop\n      pop\n      iszero\n      dup1\n      iszero\n      tag_49\n      jumpi\n      returndatasize\n      0x00\n      dup1\n      returndatacopy\n      revert(0x00, returndatasize)\n    tag_49:\n      pop\n        /* \"MultiSend.sol\":644:763  function send(address payable receiverAddr, uint receiverAmnt) private {... */\n      pop\n      pop\n      jump\t// out\n        /* \"#utility.yul\":7:82   */\n    tag_50:\n        /* \"#utility.yul\":40:46   */\n      0x00\n        /* \"#utility.yul\":73:75   */\n      0x40\n        /* \"#utility.yul\":67:76   */\n      mload\n        /* \"#utility.yul\":57:76   */\n      swap1\n      pop\n        /* \"#utility.yul\":7:82   */\n      swap1\n      jump\t// out\n        /* \"#utility.yul\":88:205   */\n    tag_51:\n        /* \"#utility.yul\":197:198   */\n      0x00\n        /* \"#utility.yul\":194:195   */\n      dup1\n        /* \"#utility.yul\":187:199   */\n      revert\n        /* \"#utility.yul\":211:328   */\n    tag_52:\n        /* \"#utility.yul\":320:321   */\n      0x00\n        /* \"#utility.yul\":317:318   */\n      dup1\n        /* \"#utility.yul\":310:322   */\n      revert\n        /* \"#utility.yul\":334:451   */\n    tag_53:\n        /* \"#utility.yul\":443:444   */\n      0x00\n        /* \"#utility.yul\":440:441   */\n      dup1\n        /* \"#utility.yul\":433:445   */\n      revert\n        /* \"#utility.yul\":457:559   */\n    tag_54:\n        /* \"#utility.yul\":498:504   */\n      0x00\n        /* \"#utility.yul\":549:551   */\n      0x1f\n        /* \"#utility.yul\":545:552   */\n      not\n        /* \"#utility.yul\":540:542   */\n      0x1f\n        /* \"#utility.yul\":533:538   */\n      dup4\n        /* \"#utility.yul\":529:543   */\n      add\n        /* \"#utility.yul\":525:553   */\n      and\n        /* \"#utility.yul\":515:553   */\n      swap1\n      pop\n        /* \"#utility.yul\":457:559   */\n      swap2\n      swap1\n      pop\n      jump\t// out\n        /* \"#utility.yul\":565:745   */\n    tag_55:\n        /* \"#utility.yul\":613:690   */\n      0x4e487b7100000000000000000000000000000000000000000000000000000000\n        /* \"#utility.yul\":610:611   */\n      0x00\n        /* \"#utility.yul\":603:691   */\n      mstore\n        /* \"#utility.yul\":710:714   */\n      0x41\n        /* \"#utility.yul\":707:708   */\n      0x04\n        /* \"#utility.yul\":700:715   */\n      mstore\n        /* \"#utility.yul\":734:738   */\n      0x24\n        /* \"#utility.yul\":731:732   */\n      0x00\n        /* \"#utility.yul\":724:739   */\n      revert\n        /* \"#utility.yul\":751:1032   */\n    tag_56:\n        /* \"#utility.yul\":834:861   */\n      tag_85\n        /* \"#utility.yul\":856:860   */\n      dup3\n        /* \"#utility.yul\":834:861   */\n      tag_54\n      jump\t// in\n    tag_85:\n        /* \"#utility.yul\":826:832   */\n      dup2\n        /* \"#utility.yul\":822:862   */\n      add\n        /* \"#utility.yul\":964:970   */\n      dup2\n        /* \"#utility.yul\":952:962   */\n      dup2\n        /* \"#utility.yul\":949:971   */\n      lt\n        /* \"#utility.yul\":928:946   */\n      0xffffffffffffffff\n        /* \"#utility.yul\":916:926   */\n      dup3\n        /* \"#utility.yul\":913:947   */\n      gt\n        /* \"#utility.yul\":910:972   */\n      or\n        /* \"#utility.yul\":907:995   */\n      iszero\n      tag_86\n      jumpi\n        /* \"#utility.yul\":975:993   */\n      tag_87\n      tag_55\n      jump\t// in\n    tag_87:\n        /* \"#utility.yul\":907:995   */\n    tag_86:\n        /* \"#utility.yul\":1015:1025   */\n      dup1\n        /* \"#utility.yul\":1011:1013   */\n      0x40\n        /* \"#utility.yul\":1004:1026   */\n      mstore\n        /* \"#utility.yul\":794:1032   */\n      pop\n        /* \"#utility.yul\":751:1032   */\n      pop\n      pop\n      jump\t// out\n        /* \"#utility.yul\":1038:1167   */\n    tag_57:\n        /* \"#utility.yul\":1072:1078   */\n      0x00\n        /* \"#utility.yul\":1099:1119   */\n      tag_89\n      tag_50\n      jump\t// in\n    tag_89:\n        /* \"#utility.yul\":1089:1119   */\n      swap1\n      pop\n        /* \"#utility.yul\":1128:1161   */\n      tag_90\n        /* \"#utility.yul\":1156:1160   */\n      dup3\n        /* \"#utility.yul\":1148:1154   */\n      dup3\n        /* \"#utility.yul\":1128:1161   */\n      tag_56\n      jump\t// in\n    tag_90:\n        /* \"#utility.yul\":1038:1167   */\n      swap2\n      swap1\n      pop\n      jump\t// out\n        /* \"#utility.yul\":1173:1492   */\n    tag_58:\n        /* \"#utility.yul\":1258:1262   */\n      0x00\n        /* \"#utility.yul\":1348:1366   */\n      0xffffffffffffffff\n        /* \"#utility.yul\":1340:1346   */\n      dup3\n        /* \"#utility.yul\":1337:1367   */\n      gt\n        /* \"#utility.yul\":1334:1390   */\n      iszero\n      tag_92\n      jumpi\n        /* \"#utility.yul\":1370:1388   */\n      tag_93\n      tag_55\n      jump\t// in\n    tag_93:\n        /* \"#utility.yul\":1334:1390   */\n    tag_92:\n        /* \"#utility.yul\":1420:1424   */\n      0x20\n        /* \"#utility.yul\":1412:1418   */\n      dup3\n        /* \"#utility.yul\":1408:1425   */\n      mul\n        /* \"#utility.yul\":1400:1425   */\n      swap1\n      pop\n        /* \"#utility.yul\":1480:1484   */\n      0x20\n        /* \"#utility.yul\":1474:1478   */\n      dup2\n        /* \"#utility.yul\":1470:1485   */\n      add\n        /* \"#utility.yul\":1462:1485   */\n      swap1\n      pop\n        /* \"#utility.yul\":1173:1492   */\n      swap2\n      swap1\n      pop\n      jump\t// out\n        /* \"#utility.yul\":1498:1615   */\n    tag_59:\n        /* \"#utility.yul\":1607:1608   */\n      0x00\n        /* \"#utility.yul\":1604:1605   */\n      dup1\n        /* \"#utility.yul\":1597:1609   */\n      revert\n        /* \"#utility.yul\":1621:1747   */\n    tag_60:\n        /* \"#utility.yul\":1658:1665   */\n      0x00\n        /* \"#utility.yul\":1698:1740   */\n      0xffffffffffffffffffffffffffffffffffffffff\n        /* \"#utility.yul\":1691:1696   */\n      dup3\n        /* \"#utility.yul\":1687:1741   */\n      and\n        /* \"#utility.yul\":1676:1741   */\n      swap1\n      pop\n        /* \"#utility.yul\":1621:1747   */\n      swap2\n      swap1\n      pop\n      jump\t// out\n        /* \"#utility.yul\":1753:1857   */\n    tag_61:\n        /* \"#utility.yul\":1798:1805   */\n      0x00\n        /* \"#utility.yul\":1827:1851   */\n      tag_97\n        /* \"#utility.yul\":1845:1850   */\n      dup3\n        /* \"#utility.yul\":1827:1851   */\n      tag_60\n      jump\t// in\n    tag_97:\n        /* \"#utility.yul\":1816:1851   */\n      swap1\n      pop\n        /* \"#utility.yul\":1753:1857   */\n      swap2\n      swap1\n      pop\n      jump\t// out\n        /* \"#utility.yul\":1863:2001   */\n    tag_62:\n        /* \"#utility.yul\":1944:1976   */\n      tag_99\n        /* \"#utility.yul\":1970:1975   */\n      dup2\n        /* \"#utility.yul\":1944:1976   */\n      tag_61\n      jump\t// in\n    tag_99:\n        /* \"#utility.yul\":1937:1942   */\n      dup2\n        /* \"#utility.yul\":1934:1977   */\n      eq\n        /* \"#utility.yul\":1924:1995   */\n      tag_100\n      jumpi\n        /* \"#utility.yul\":1991:1992   */\n      0x00\n        /* \"#utility.yul\":1988:1989   */\n      dup1\n        /* \"#utility.yul\":1981:1993   */\n      revert\n        /* \"#utility.yul\":1924:1995   */\n    tag_100:\n        /* \"#utility.yul\":1863:2001   */\n      pop\n      jump\t// out\n        /* \"#utility.yul\":2007:2162   */\n    tag_63:\n        /* \"#utility.yul\":2061:2066   */\n      0x00\n        /* \"#utility.yul\":2099:2105   */\n      dup2\n        /* \"#utility.yul\":2086:2106   */\n      calldataload\n        /* \"#utility.yul\":2077:2106   */\n      swap1\n      pop\n        /* \"#utility.yul\":2115:2156   */\n      tag_102\n        /* \"#utility.yul\":2150:2155   */\n      dup2\n        /* \"#utility.yul\":2115:2156   */\n      tag_62\n      jump\t// in\n    tag_102:\n        /* \"#utility.yul\":2007:2162   */\n      swap3\n      swap2\n      pop\n      pop\n      jump\t// out\n        /* \"#utility.yul\":2193:2927   */\n    tag_64:\n        /* \"#utility.yul\":2297:2302   */\n      0x00\n        /* \"#utility.yul\":2322:2411   */\n      tag_104\n        /* \"#utility.yul\":2338:2410   */\n      tag_105\n        /* \"#utility.yul\":2403:2409   */\n      dup5\n        /* \"#utility.yul\":2338:2410   */\n      tag_58\n      jump\t// in\n    tag_105:\n        /* \"#utility.yul\":2322:2411   */\n      tag_57\n      jump\t// in\n    tag_104:\n        /* \"#utility.yul\":2313:2411   */\n      swap1\n      pop\n        /* \"#utility.yul\":2431:2436   */\n      dup1\n        /* \"#utility.yul\":2460:2466   */\n      dup4\n        /* \"#utility.yul\":2453:2458   */\n      dup3\n        /* \"#utility.yul\":2446:2467   */\n      mstore\n        /* \"#utility.yul\":2494:2498   */\n      0x20\n        /* \"#utility.yul\":2487:2492   */\n      dup3\n        /* \"#utility.yul\":2483:2499   */\n      add\n        /* \"#utility.yul\":2476:2499   */\n      swap1\n      pop\n        /* \"#utility.yul\":2547:2551   */\n      0x20\n        /* \"#utility.yul\":2539:2545   */\n      dup5\n        /* \"#utility.yul\":2535:2552   */\n      mul\n        /* \"#utility.yul\":2527:2533   */\n      dup4\n        /* \"#utility.yul\":2523:2553   */\n      add\n        /* \"#utility.yul\":2576:2579   */\n      dup6\n        /* \"#utility.yul\":2568:2574   */\n      dup2\n        /* \"#utility.yul\":2565:2580   */\n      gt\n        /* \"#utility.yul\":2562:2684   */\n      iszero\n      tag_106\n      jumpi\n        /* \"#utility.yul\":2595:2674   */\n      tag_107\n      tag_59\n      jump\t// in\n    tag_107:\n        /* \"#utility.yul\":2562:2684   */\n    tag_106:\n        /* \"#utility.yul\":2710:2716   */\n      dup4\n        /* \"#utility.yul\":2693:2921   */\n    tag_108:\n        /* \"#utility.yul\":2727:2733   */\n      dup2\n        /* \"#utility.yul\":2722:2725   */\n      dup2\n        /* \"#utility.yul\":2719:2734   */\n      lt\n        /* \"#utility.yul\":2693:2921   */\n      iszero\n      tag_110\n      jumpi\n        /* \"#utility.yul\":2802:2805   */\n      dup1\n        /* \"#utility.yul\":2831:2876   */\n      tag_111\n        /* \"#utility.yul\":2872:2875   */\n      dup9\n        /* \"#utility.yul\":2860:2870   */\n      dup3\n        /* \"#utility.yul\":2831:2876   */\n      tag_63\n      jump\t// in\n    tag_111:\n        /* \"#utility.yul\":2826:2829   */\n      dup5\n        /* \"#utility.yul\":2819:2877   */\n      mstore\n        /* \"#utility.yul\":2906:2910   */\n      0x20\n        /* \"#utility.yul\":2901:2904   */\n      dup5\n        /* \"#utility.yul\":2897:2911   */\n      add\n        /* \"#utility.yul\":2890:2911   */\n      swap4\n      pop\n        /* \"#utility.yul\":2769:2921   */\n      pop\n        /* \"#utility.yul\":2753:2757   */\n      0x20\n        /* \"#utility.yul\":2748:2751   */\n      dup2\n        /* \"#utility.yul\":2744:2758   */\n      add\n        /* \"#utility.yul\":2737:2758   */\n      swap1\n      pop\n        /* \"#utility.yul\":2693:2921   */\n      jump(tag_108)\n    tag_110:\n        /* \"#utility.yul\":2697:2718   */\n      pop\n        /* \"#utility.yul\":2303:2927   */\n      pop\n      pop\n        /* \"#utility.yul\":2193:2927   */\n      swap4\n      swap3\n      pop\n      pop\n      pop\n      jump\t// out\n        /* \"#utility.yul\":2958:3344   */\n    tag_65:\n        /* \"#utility.yul\":3037:3042   */\n      0x00\n        /* \"#utility.yul\":3086:3089   */\n      dup3\n        /* \"#utility.yul\":3079:3083   */\n      0x1f\n        /* \"#utility.yul\":3071:3077   */\n      dup4\n        /* \"#utility.yul\":3067:3084   */\n      add\n        /* \"#utility.yul\":3063:3090   */\n      slt\n        /* \"#utility.yul\":3053:3175   */\n      tag_113\n      jumpi\n        /* \"#utility.yul\":3094:3173   */\n      tag_114\n      tag_53\n      jump\t// in\n    tag_114:\n        /* \"#utility.yul\":3053:3175   */\n    tag_113:\n        /* \"#utility.yul\":3211:3217   */\n      dup2\n        /* \"#utility.yul\":3198:3218   */\n      calldataload\n        /* \"#utility.yul\":3236:3338   */\n      tag_115\n        /* \"#utility.yul\":3334:3337   */\n      dup5\n        /* \"#utility.yul\":3326:3332   */\n      dup3\n        /* \"#utility.yul\":3319:3323   */\n      0x20\n        /* \"#utility.yul\":3311:3317   */\n      dup7\n        /* \"#utility.yul\":3307:3324   */\n      add\n        /* \"#utility.yul\":3236:3338   */\n      tag_64\n      jump\t// in\n    tag_115:\n        /* \"#utility.yul\":3227:3338   */\n      swap2\n      pop\n        /* \"#utility.yul\":3043:3344   */\n      pop\n        /* \"#utility.yul\":2958:3344   */\n      swap3\n      swap2\n      pop\n      pop\n      jump\t// out\n        /* \"#utility.yul\":3350:3661   */\n    tag_66:\n        /* \"#utility.yul\":3427:3431   */\n      0x00\n        /* \"#utility.yul\":3517:3535   */\n      0xffffffffffffffff\n        /* \"#utility.yul\":3509:3515   */\n      dup3\n        /* \"#utility.yul\":3506:3536   */\n      gt\n        /* \"#utility.yul\":3503:3559   */\n      iszero\n      tag_117\n      jumpi\n        /* \"#utility.yul\":3539:3557   */\n      tag_118\n      tag_55\n      jump\t// in\n    tag_118:\n        /* \"#utility.yul\":3503:3559   */\n    tag_117:\n        /* \"#utility.yul\":3589:3593   */\n      0x20\n        /* \"#utility.yul\":3581:3587   */\n      dup3\n        /* \"#utility.yul\":3577:3594   */\n      mul\n        /* \"#utility.yul\":3569:3594   */\n      swap1\n      pop\n        /* \"#utility.yul\":3649:3653   */\n      0x20\n        /* \"#utility.yul\":3643:3647   */\n      dup2\n        /* \"#utility.yul\":3639:3654   */\n      add\n        /* \"#utility.yul\":3631:3654   */\n      swap1\n      pop\n        /* \"#utility.yul\":3350:3661   */\n      swap2\n      swap1\n      pop\n      jump\t// out\n        /* \"#utility.yul\":3667:3744   */\n    tag_67:\n        /* \"#utility.yul\":3704:3711   */\n      0x00\n        /* \"#utility.yul\":3733:3738   */\n      dup2\n        /* \"#utility.yul\":3722:3738   */\n      swap1\n      pop\n        /* \"#utility.yul\":3667:3744   */\n      swap2\n      swap1\n      pop\n      jump\t// out\n        /* \"#utility.yul\":3750:3872   */\n    tag_68:\n        /* \"#utility.yul\":3823:3847   */\n      tag_121\n        /* \"#utility.yul\":3841:3846   */\n      dup2\n        /* \"#utility.yul\":3823:3847   */\n      tag_67\n      jump\t// in\n    tag_121:\n        /* \"#utility.yul\":3816:3821   */\n      dup2\n        /* \"#utility.yul\":3813:3848   */\n      eq\n        /* \"#utility.yul\":3803:3866   */\n      tag_122\n      jumpi\n        /* \"#utility.yul\":3862:3863   */\n      0x00\n        /* \"#utility.yul\":3859:3860   */\n      dup1\n        /* \"#utility.yul\":3852:3864   */\n      revert\n        /* \"#utility.yul\":3803:3866   */\n    tag_122:\n        /* \"#utility.yul\":3750:3872   */\n      pop\n      jump\t// out\n        /* \"#utility.yul\":3878:4017   */\n    tag_69:\n        /* \"#utility.yul\":3924:3929   */\n      0x00\n        /* \"#utility.yul\":3962:3968   */\n      dup2\n        /* \"#utility.yul\":3949:3969   */\n      calldataload\n        /* \"#utility.yul\":3940:3969   */\n      swap1\n      pop\n        /* \"#utility.yul\":3978:4011   */\n      tag_124\n        /* \"#utility.yul\":4005:4010   */\n      dup2\n        /* \"#utility.yul\":3978:4011   */\n      tag_68\n      jump\t// in\n    tag_124:\n        /* \"#utility.yul\":3878:4017   */\n      swap3\n      swap2\n      pop\n      pop\n      jump\t// out\n        /* \"#utility.yul\":4040:4750   */\n    tag_70:\n        /* \"#utility.yul\":4136:4141   */\n      0x00\n        /* \"#utility.yul\":4161:4242   */\n      tag_126\n        /* \"#utility.yul\":4177:4241   */\n      tag_127\n        /* \"#utility.yul\":4234:4240   */\n      dup5\n        /* \"#utility.yul\":4177:4241   */\n      tag_66\n      jump\t// in\n    tag_127:\n        /* \"#utility.yul\":4161:4242   */\n      tag_57\n      jump\t// in\n    tag_126:\n        /* \"#utility.yul\":4152:4242   */\n      swap1\n      pop\n        /* \"#utility.yul\":4262:4267   */\n      dup1\n        /* \"#utility.yul\":4291:4297   */\n      dup4\n        /* \"#utility.yul\":4284:4289   */\n      dup3\n        /* \"#utility.yul\":4277:4298   */\n      mstore\n        /* \"#utility.yul\":4325:4329   */\n      0x20\n        /* \"#utility.yul\":4318:4323   */\n      dup3\n        /* \"#utility.yul\":4314:4330   */\n      add\n        /* \"#utility.yul\":4307:4330   */\n      swap1\n      pop\n        /* \"#utility.yul\":4378:4382   */\n      0x20\n        /* \"#utility.yul\":4370:4376   */\n      dup5\n        /* \"#utility.yul\":4366:4383   */\n      mul\n        /* \"#utility.yul\":4358:4364   */\n      dup4\n        /* \"#utility.yul\":4354:4384   */\n      add\n        /* \"#utility.yul\":4407:4410   */\n      dup6\n        /* \"#utility.yul\":4399:4405   */\n      dup2\n        /* \"#utility.yul\":4396:4411   */\n      gt\n        /* \"#utility.yul\":4393:4515   */\n      iszero\n      tag_128\n      jumpi\n        /* \"#utility.yul\":4426:4505   */\n      tag_129\n      tag_59\n      jump\t// in\n    tag_129:\n        /* \"#utility.yul\":4393:4515   */\n    tag_128:\n        /* \"#utility.yul\":4541:4547   */\n      dup4\n        /* \"#utility.yul\":4524:4744   */\n    tag_130:\n        /* \"#utility.yul\":4558:4564   */\n      dup2\n        /* \"#utility.yul\":4553:4556   */\n      dup2\n        /* \"#utility.yul\":4550:4565   */\n      lt\n        /* \"#utility.yul\":4524:4744   */\n      iszero\n      tag_132\n      jumpi\n        /* \"#utility.yul\":4633:4636   */\n      dup1\n        /* \"#utility.yul\":4662:4699   */\n      tag_133\n        /* \"#utility.yul\":4695:4698   */\n      dup9\n        /* \"#utility.yul\":4683:4693   */\n      dup3\n        /* \"#utility.yul\":4662:4699   */\n      tag_69\n      jump\t// in\n    tag_133:\n        /* \"#utility.yul\":4657:4660   */\n      dup5\n        /* \"#utility.yul\":4650:4700   */\n      mstore\n        /* \"#utility.yul\":4729:4733   */\n      0x20\n        /* \"#utility.yul\":4724:4727   */\n      dup5\n        /* \"#utility.yul\":4720:4734   */\n      add\n        /* \"#utility.yul\":4713:4734   */\n      swap4\n      pop\n        /* \"#utility.yul\":4600:4744   */\n      pop\n        /* \"#utility.yul\":4584:4588   */\n      0x20\n        /* \"#utility.yul\":4579:4582   */\n      dup2\n        /* \"#utility.yul\":4575:4589   */\n      add\n        /* \"#utility.yul\":4568:4589   */\n      swap1\n      pop\n        /* \"#utility.yul\":4524:4744   */\n      jump(tag_130)\n    tag_132:\n        /* \"#utility.yul\":4528:4549   */\n      pop\n        /* \"#utility.yul\":4142:4750   */\n      pop\n      pop\n        /* \"#utility.yul\":4040:4750   */\n      swap4\n      swap3\n      pop\n      pop\n      pop\n      jump\t// out\n        /* \"#utility.yul\":4773:5143   */\n    tag_71:\n        /* \"#utility.yul\":4844:4849   */\n      0x00\n        /* \"#utility.yul\":4893:4896   */\n      dup3\n        /* \"#utility.yul\":4886:4890   */\n      0x1f\n        /* \"#utility.yul\":4878:4884   */\n      dup4\n        /* \"#utility.yul\":4874:4891   */\n      add\n        /* \"#utility.yul\":4870:4897   */\n      slt\n        /* \"#utility.yul\":4860:4982   */\n      tag_135\n      jumpi\n        /* \"#utility.yul\":4901:4980   */\n      tag_136\n      tag_53\n      jump\t// in\n    tag_136:\n        /* \"#utility.yul\":4860:4982   */\n    tag_135:\n        /* \"#utility.yul\":5018:5024   */\n      dup2\n        /* \"#utility.yul\":5005:5025   */\n      calldataload\n        /* \"#utility.yul\":5043:5137   */\n      tag_137\n        /* \"#utility.yul\":5133:5136   */\n      dup5\n        /* \"#utility.yul\":5125:5131   */\n      dup3\n        /* \"#utility.yul\":5118:5122   */\n      0x20\n        /* \"#utility.yul\":5110:5116   */\n      dup7\n        /* \"#utility.yul\":5106:5123   */\n      add\n        /* \"#utility.yul\":5043:5137   */\n      tag_70\n      jump\t// in\n    tag_137:\n        /* \"#utility.yul\":5034:5137   */\n      swap2\n      pop\n        /* \"#utility.yul\":4850:5143   */\n      pop\n        /* \"#utility.yul\":4773:5143   */\n      swap3\n      swap2\n      pop\n      pop\n      jump\t// out\n        /* \"#utility.yul\":5149:6059   */\n    tag_5:\n        /* \"#utility.yul\":5275:5281   */\n      0x00\n        /* \"#utility.yul\":5283:5289   */\n      dup1\n        /* \"#utility.yul\":5332:5334   */\n      0x40\n        /* \"#utility.yul\":5320:5329   */\n      dup4\n        /* \"#utility.yul\":5311:5318   */\n      dup6\n        /* \"#utility.yul\":5307:5330   */\n      sub\n        /* \"#utility.yul\":5303:5335   */\n      slt\n        /* \"#utility.yul\":5300:5419   */\n      iszero\n      tag_139\n      jumpi\n        /* \"#utility.yul\":5338:5417   */\n      tag_140\n      tag_51\n      jump\t// in\n    tag_140:\n        /* \"#utility.yul\":5300:5419   */\n    tag_139:\n        /* \"#utility.yul\":5486:5487   */\n      0x00\n        /* \"#utility.yul\":5475:5484   */\n      dup4\n        /* \"#utility.yul\":5471:5488   */\n      add\n        /* \"#utility.yul\":5458:5489   */\n      calldataload\n        /* \"#utility.yul\":5516:5534   */\n      0xffffffffffffffff\n        /* \"#utility.yul\":5508:5514   */\n      dup2\n        /* \"#utility.yul\":5505:5535   */\n      gt\n        /* \"#utility.yul\":5502:5619   */\n      iszero\n      tag_141\n      jumpi\n        /* \"#utility.yul\":5538:5617   */\n      tag_142\n      tag_52\n      jump\t// in\n    tag_142:\n        /* \"#utility.yul\":5502:5619   */\n    tag_141:\n        /* \"#utility.yul\":5643:5729   */\n      tag_143\n        /* \"#utility.yul\":5721:5728   */\n      dup6\n        /* \"#utility.yul\":5712:5718   */\n      dup3\n        /* \"#utility.yul\":5701:5710   */\n      dup7\n        /* \"#utility.yul\":5697:5719   */\n      add\n        /* \"#utility.yul\":5643:5729   */\n      tag_65\n      jump\t// in\n    tag_143:\n        /* \"#utility.yul\":5633:5729   */\n      swap3\n      pop\n        /* \"#utility.yul\":5429:5739   */\n      pop\n        /* \"#utility.yul\":5806:5808   */\n      0x20\n        /* \"#utility.yul\":5795:5804   */\n      dup4\n        /* \"#utility.yul\":5791:5809   */\n      add\n        /* \"#utility.yul\":5778:5810   */\n      calldataload\n        /* \"#utility.yul\":5837:5855   */\n      0xffffffffffffffff\n        /* \"#utility.yul\":5829:5835   */\n      dup2\n        /* \"#utility.yul\":5826:5856   */\n      gt\n        /* \"#utility.yul\":5823:5940   */\n      iszero\n      tag_144\n      jumpi\n        /* \"#utility.yul\":5859:5938   */\n      tag_145\n      tag_52\n      jump\t// in\n    tag_145:\n        /* \"#utility.yul\":5823:5940   */\n    tag_144:\n        /* \"#utility.yul\":5964:6042   */\n      tag_146\n        /* \"#utility.yul\":6034:6041   */\n      dup6\n        /* \"#utility.yul\":6025:6031   */\n      dup3\n        /* \"#utility.yul\":6014:6023   */\n      dup7\n        /* \"#utility.yul\":6010:6032   */\n      add\n        /* \"#utility.yul\":5964:6042   */\n      tag_71\n      jump\t// in\n    tag_146:\n        /* \"#utility.yul\":5954:6042   */\n      swap2\n      pop\n        /* \"#utility.yul\":5749:6052   */\n      pop\n        /* \"#utility.yul\":5149:6059   */\n      swap3\n      pop\n      swap3\n      swap1\n      pop\n      jump\t// out\n        /* \"#utility.yul\":6065:6234   */\n    tag_72:\n        /* \"#utility.yul\":6149:6160   */\n      0x00\n        /* \"#utility.yul\":6183:6189   */\n      dup3\n        /* \"#utility.yul\":6178:6181   */\n      dup3\n        /* \"#utility.yul\":6171:6190   */\n      mstore\n        /* \"#utility.yul\":6223:6227   */\n      0x20\n        /* \"#utility.yul\":6218:6221   */\n      dup3\n        /* \"#utility.yul\":6214:6228   */\n      add\n        /* \"#utility.yul\":6199:6228   */\n      swap1\n      pop\n        /* \"#utility.yul\":6065:6234   */\n      swap3\n      swap2\n      pop\n      pop\n      jump\t// out\n        /* \"#utility.yul\":6240:6477   */\n    tag_73:\n        /* \"#utility.yul\":6380:6414   */\n      0x4d7573742070726f766964652073616d65206e756d626572206f662061646472\n        /* \"#utility.yul\":6376:6377   */\n      0x00\n        /* \"#utility.yul\":6368:6374   */\n      dup3\n        /* \"#utility.yul\":6364:6378   */\n      add\n        /* \"#utility.yul\":6357:6415   */\n      mstore\n        /* \"#utility.yul\":6449:6469   */\n      0x657373657320616e6420616d6f756e74732e0000000000000000000000000000\n        /* \"#utility.yul\":6444:6446   */\n      0x20\n        /* \"#utility.yul\":6436:6442   */\n      dup3\n        /* \"#utility.yul\":6432:6447   */\n      add\n        /* \"#utility.yul\":6425:6470   */\n      mstore\n        /* \"#utility.yul\":6240:6477   */\n      pop\n      jump\t// out\n        /* \"#utility.yul\":6483:6849   */\n    tag_74:\n        /* \"#utility.yul\":6625:6628   */\n      0x00\n        /* \"#utility.yul\":6646:6713   */\n      tag_150\n        /* \"#utility.yul\":6710:6712   */\n      0x32\n        /* \"#utility.yul\":6705:6708   */\n      dup4\n        /* \"#utility.yul\":6646:6713   */\n      tag_72\n      jump\t// in\n    tag_150:\n        /* \"#utility.yul\":6639:6713   */\n      swap2\n      pop\n        /* \"#utility.yul\":6722:6815   */\n      tag_151\n        /* \"#utility.yul\":6811:6814   */\n      dup3\n        /* \"#utility.yul\":6722:6815   */\n      tag_73\n      jump\t// in\n    tag_151:\n        /* \"#utility.yul\":6840:6842   */\n      0x40\n        /* \"#utility.yul\":6835:6838   */\n      dup3\n        /* \"#utility.yul\":6831:6843   */\n      add\n        /* \"#utility.yul\":6824:6843   */\n      swap1\n      pop\n        /* \"#utility.yul\":6483:6849   */\n      swap2\n      swap1\n      pop\n      jump\t// out\n        /* \"#utility.yul\":6855:7274   */\n    tag_10:\n        /* \"#utility.yul\":7021:7025   */\n      0x00\n        /* \"#utility.yul\":7059:7061   */\n      0x20\n        /* \"#utility.yul\":7048:7057   */\n      dup3\n        /* \"#utility.yul\":7044:7062   */\n      add\n        /* \"#utility.yul\":7036:7062   */\n      swap1\n      pop\n        /* \"#utility.yul\":7108:7117   */\n      dup2\n        /* \"#utility.yul\":7102:7106   */\n      dup2\n        /* \"#utility.yul\":7098:7118   */\n      sub\n        /* \"#utility.yul\":7094:7095   */\n      0x00\n        /* \"#utility.yul\":7083:7092   */\n      dup4\n        /* \"#utility.yul\":7079:7096   */\n      add\n        /* \"#utility.yul\":7072:7119   */\n      mstore\n        /* \"#utility.yul\":7136:7267   */\n      tag_153\n        /* \"#utility.yul\":7262:7266   */\n      dup2\n        /* \"#utility.yul\":7136:7267   */\n      tag_74\n      jump\t// in\n    tag_153:\n        /* \"#utility.yul\":7128:7267   */\n      swap1\n      pop\n        /* \"#utility.yul\":6855:7274   */\n      swap2\n      swap1\n      pop\n      jump\t// out\n        /* \"#utility.yul\":7280:7398   */\n    tag_75:\n        /* \"#utility.yul\":7367:7391   */\n      tag_155\n        /* \"#utility.yul\":7385:7390   */\n      dup2\n        /* \"#utility.yul\":7367:7391   */\n      tag_67\n      jump\t// in\n    tag_155:\n        /* \"#utility.yul\":7362:7365   */\n      dup3\n        /* \"#utility.yul\":7355:7392   */\n      mstore\n        /* \"#utility.yul\":7280:7398   */\n      pop\n      pop\n      jump\t// out\n        /* \"#utility.yul\":7404:7736   */\n    tag_15:\n        /* \"#utility.yul\":7525:7529   */\n      0x00\n        /* \"#utility.yul\":7563:7565   */\n      0x40\n        /* \"#utility.yul\":7552:7561   */\n      dup3\n        /* \"#utility.yul\":7548:7566   */\n      add\n        /* \"#utility.yul\":7540:7566   */\n      swap1\n      pop\n        /* \"#utility.yul\":7576:7647   */\n      tag_157\n        /* \"#utility.yul\":7644:7645   */\n      0x00\n        /* \"#utility.yul\":7633:7642   */\n      dup4\n        /* \"#utility.yul\":7629:7646   */\n      add\n        /* \"#utility.yul\":7620:7626   */\n      dup6\n        /* \"#utility.yul\":7576:7647   */\n      tag_75\n      jump\t// in\n    tag_157:\n        /* \"#utility.yul\":7657:7729   */\n      tag_158\n        /* \"#utility.yul\":7725:7727   */\n      0x20\n        /* \"#utility.yul\":7714:7723   */\n      dup4\n        /* \"#utility.yul\":7710:7728   */\n      add\n        /* \"#utility.yul\":7701:7707   */\n      dup5\n        /* \"#utility.yul\":7657:7729   */\n      tag_75\n      jump\t// in\n    tag_158:\n        /* \"#utility.yul\":7404:7736   */\n      swap4\n      swap3\n      pop\n      pop\n      pop\n      jump\t// out\n        /* \"#utility.yul\":7742:7922   */\n    tag_21:\n        /* \"#utility.yul\":7790:7867   */\n      0x4e487b7100000000000000000000000000000000000000000000000000000000\n        /* \"#utility.yul\":7787:7788   */\n      0x00\n        /* \"#utility.yul\":7780:7868   */\n      mstore\n        /* \"#utility.yul\":7887:7891   */\n      0x32\n        /* \"#utility.yul\":7884:7885   */\n      0x04\n        /* \"#utility.yul\":7877:7892   */\n      mstore\n        /* \"#utility.yul\":7911:7915   */\n      0x24\n        /* \"#utility.yul\":7908:7909   */\n      0x00\n        /* \"#utility.yul\":7901:7916   */\n      revert\n        /* \"#utility.yul\":7928:8108   */\n    tag_76:\n        /* \"#utility.yul\":7976:8053   */\n      0x4e487b7100000000000000000000000000000000000000000000000000000000\n        /* \"#utility.yul\":7973:7974   */\n      0x00\n        /* \"#utility.yul\":7966:8054   */\n      mstore\n        /* \"#utility.yul\":8073:8077   */\n      0x11\n        /* \"#utility.yul\":8070:8071   */\n      0x04\n        /* \"#utility.yul\":8063:8078   */\n      mstore\n        /* \"#utility.yul\":8097:8101   */\n      0x24\n        /* \"#utility.yul\":8094:8095   */\n      0x00\n        /* \"#utility.yul\":8087:8102   */\n      revert\n        /* \"#utility.yul\":8114:8308   */\n    tag_23:\n        /* \"#utility.yul\":8154:8158   */\n      0x00\n        /* \"#utility.yul\":8174:8194   */\n      tag_162\n        /* \"#utility.yul\":8192:8193   */\n      dup3\n        /* \"#utility.yul\":8174:8194   */\n      tag_67\n      jump\t// in\n    tag_162:\n        /* \"#utility.yul\":8169:8194   */\n      swap2\n      pop\n        /* \"#utility.yul\":8208:8228   */\n      tag_163\n        /* \"#utility.yul\":8226:8227   */\n      dup4\n        /* \"#utility.yul\":8208:8228   */\n      tag_67\n      jump\t// in\n    tag_163:\n        /* \"#utility.yul\":8203:8228   */\n      swap3\n      pop\n        /* \"#utility.yul\":8252:8253   */\n      dup3\n        /* \"#utility.yul\":8249:8250   */\n      dup3\n        /* \"#utility.yul\":8245:8254   */\n      sub\n        /* \"#utility.yul\":8237:8254   */\n      swap1\n      pop\n        /* \"#utility.yul\":8276:8277   */\n      dup2\n        /* \"#utility.yul\":8270:8274   */\n      dup2\n        /* \"#utility.yul\":8267:8278   */\n      gt\n        /* \"#utility.yul\":8264:8301   */\n      iszero\n      tag_164\n      jumpi\n        /* \"#utility.yul\":8281:8299   */\n      tag_165\n      tag_76\n      jump\t// in\n    tag_165:\n        /* \"#utility.yul\":8264:8301   */\n    tag_164:\n        /* \"#utility.yul\":8114:8308   */\n      swap3\n      swap2\n      pop\n      pop\n      jump\t// out\n        /* \"#utility.yul\":8314:8536   */\n    tag_35:\n        /* \"#utility.yul\":8407:8411   */\n      0x00\n        /* \"#utility.yul\":8445:8447   */\n      0x20\n        /* \"#utility.yul\":8434:8443   */\n      dup3\n        /* \"#utility.yul\":8430:8448   */\n      add\n        /* \"#utility.yul\":8422:8448   */\n      swap1\n      pop\n        /* \"#utility.yul\":8458:8529   */\n      tag_167\n        /* \"#utility.yul\":8526:8527   */\n      0x00\n        /* \"#utility.yul\":8515:8524   */\n      dup4\n        /* \"#utility.yul\":8511:8528   */\n      add\n        /* \"#utility.yul\":8502:8508   */\n      dup5\n        /* \"#utility.yul\":8458:8529   */\n      tag_75\n      jump\t// in\n    tag_167:\n        /* \"#utility.yul\":8314:8536   */\n      swap3\n      swap2\n      pop\n      pop\n      jump\t// out\n        /* \"#utility.yul\":8542:8775   */\n    tag_37:\n        /* \"#utility.yul\":8581:8584   */\n      0x00\n        /* \"#utility.yul\":8604:8628   */\n      tag_169\n        /* \"#utility.yul\":8622:8627   */\n      dup3\n        /* \"#utility.yul\":8604:8628   */\n      tag_67\n      jump\t// in\n    tag_169:\n        /* \"#utility.yul\":8595:8628   */\n      swap2\n      pop\n        /* \"#utility.yul\":8650:8716   */\n      0xffffffffffffffffffffffffffffffffffffffffffffffffffffffffffffffff\n        /* \"#utility.yul\":8643:8648   */\n      dup3\n        /* \"#utility.yul\":8640:8717   */\n      sub\n        /* \"#utility.yul\":8637:8740   */\n      tag_170\n      jumpi\n        /* \"#utility.yul\":8720:8738   */\n      tag_171\n      tag_76\n      jump\t// in\n    tag_171:\n        /* \"#utility.yul\":8637:8740   */\n    tag_170:\n        /* \"#utility.yul\":8767:8768   */\n      0x01\n        /* \"#utility.yul\":8760:8765   */\n      dup3\n        /* \"#utility.yul\":8756:8769   */\n      add\n        /* \"#utility.yul\":8749:8769   */\n      swap1\n      pop\n        /* \"#utility.yul\":8542:8775   */\n      swap2\n      swap1\n      pop\n      jump\t// out\n        /* \"#utility.yul\":8781:8972   */\n    tag_45:\n        /* \"#utility.yul\":8821:8824   */\n      0x00\n        /* \"#utility.yul\":8840:8860   */\n      tag_173\n        /* \"#utility.yul\":8858:8859   */\n      dup3\n        /* \"#utility.yul\":8840:8860   */\n      tag_67\n      jump\t// in\n    tag_173:\n        /* \"#utility.yul\":8835:8860   */\n      swap2\n      pop\n        /* \"#utility.yul\":8874:8894   */\n      tag_174\n        /* \"#utility.yul\":8892:8893   */\n      dup4\n        /* \"#utility.yul\":8874:8894   */\n      tag_67\n      jump\t// in\n    tag_174:\n        /* \"#utility.yul\":8869:8894   */\n      swap3\n      pop\n        /* \"#utility.yul\":8917:8918   */\n      dup3\n        /* \"#utility.yul\":8914:8915   */\n      dup3\n        /* \"#utility.yul\":8910:8919   */\n      add\n        /* \"#utility.yul\":8903:8919   */\n      swap1\n      pop\n        /* \"#utility.yul\":8938:8941   */\n      dup1\n        /* \"#utility.yul\":8935:8936   */\n      dup3\n        /* \"#utility.yul\":8932:8942   */\n      gt\n        /* \"#utility.yul\":8929:8965   */\n      iszero\n      tag_175\n      jumpi\n        /* \"#utility.yul\":8945:8963   */\n      tag_176\n      tag_76\n      jump\t// in\n    tag_176:\n        /* \"#utility.yul\":8929:8965   */\n    tag_175:\n        /* \"#utility.yul\":8781:8972   */\n      swap3\n      swap2\n      pop\n      pop\n      jump\t// out\n\n    auxdata: 0xa264697066735822122051afb227406fa6c7f7316494acca52fd93fab902f7c22da616764473d7525b7764736f6c63430008110033\n}\n",
        "bytecode": {
            "linkReferences": {},
            "object": "6080604052346000819055506108228061001a6000396000f3fe60806040526004361061001e5760003560e01c80637156d67214610023575b600080fd5b61003d60048036038101906100389190610570565b61003f565b005b8051825114610083576040517f08c379a000000000000000000000000000000000000000000000000000000000815260040161007a9061066b565b60405180910390fd5b600061008e82610209565b90508060005410156100db57806000546040517fcf4791810000000000000000000000000000000000000000000000000000000081526004016100d292919061069a565b60405180910390fd5b60005b8351811015610203578281815181106100fa576100f96106c3565b5b60200260200101516000808282546101129190610721565b9250508190555061015784828151811061012f5761012e6106c3565b5b602002602001015184838151811061014a576101496106c3565b5b6020026020010151610261565b83818151811061016a576101696106c3565b5b602002602001015173ffffffffffffffffffffffffffffffffffffffff163073ffffffffffffffffffffffffffffffffffffffff167fddf252ad1be2c89b69c2b068fc378daa952ba7f163c4a11628f55a4df523b3ef8584815181106101d3576101d26106c3565b5b60200260200101516040516101e89190610755565b60405180910390a380806101fb90610770565b9150506100de565b50505050565b6000806000905060005b83518110156102575783818151811061022f5761022e6106c3565b5b60200260200101518261024291906107b8565b9150808061024f90610770565b915050610213565b5080915050919050565b8173ffffffffffffffffffffffffffffffffffffffff166108fc829081150290604051600060405180830381858888f193505050501580156102a7573d6000803e3d6000fd5b505050565b6000604051905090565b600080fd5b600080fd5b600080fd5b6000601f19601f8301169050919050565b7f4e487b7100000000000000000000000000000000000000000000000000000000600052604160045260246000fd5b61030e826102c5565b810181811067ffffffffffffffff8211171561032d5761032c6102d6565b5b80604052505050565b60006103406102ac565b905061034c8282610305565b919050565b600067ffffffffffffffff82111561036c5761036b6102d6565b5b602082029050602081019050919050565b600080fd5b600073ffffffffffffffffffffffffffffffffffffffff82169050919050565b60006103ad82610382565b9050919050565b6103bd816103a2565b81146103c857600080fd5b50565b6000813590506103da816103b4565b92915050565b60006103f36103ee84610351565b610336565b905080838252602082019050602084028301858111156104165761041561037d565b5b835b8181101561043f578061042b88826103cb565b845260208401935050602081019050610418565b5050509392505050565b600082601f83011261045e5761045d6102c0565b5b813561046e8482602086016103e0565b91505092915050565b600067ffffffffffffffff821115610492576104916102d6565b5b602082029050602081019050919050565b6000819050919050565b6104b6816104a3565b81146104c157600080fd5b50565b6000813590506104d3816104ad565b92915050565b60006104ec6104e784610477565b610336565b9050808382526020820190506020840283018581111561050f5761050e61037d565b5b835b81811015610538578061052488826104c4565b845260208401935050602081019050610511565b5050509392505050565b600082601f830112610557576105566102c0565b5b81356105678482602086016104d9565b91505092915050565b60008060408385031215610587576105866102b6565b5b600083013567ffffffffffffffff8111156105a5576105a46102bb565b5b6105b185828601610449565b925050602083013567ffffffffffffffff8111156105d2576105d16102bb565b5b6105de85828601610542565b9150509250929050565b600082825260208201905092915050565b7f4d7573742070726f766964652073616d65206e756d626572206f66206164647260008201527f657373657320616e6420616d6f756e74732e0000000000000000000000000000602082015250565b60006106556032836105e8565b9150610660826105f9565b604082019050919050565b6000602082019050818103600083015261068481610648565b9050919050565b610694816104a3565b82525050565b60006040820190506106af600083018561068b565b6106bc602083018461068b565b9392505050565b7f4e487b7100000000000000000000000000000000000000000000000000000000600052603260045260246000fd5b7f4e487b7100000000000000000000000000000000000000000000000000000000600052601160045260246000fd5b600061072c826104a3565b9150610737836104a3565b925082820390508181111561074f5761074e6106f2565b5b92915050565b600060208201905061076a600083018461068b565b92915050565b600061077b826104a3565b91507fffffffffffffffffffffffffffffffffffffffffffffffffffffffffffffffff82036107ad576107ac6106f2565b5b600182019050919050565b60006107c3826104a3565b91506107ce836104a3565b92508282019050808211156107e6576107e56106f2565b5b9291505056fea264697066735822122051afb227406fa6c7f7316494acca52fd93fab902f7c22da616764473d7525b7764736f6c63430008110033",
            "opcodes": "PUSH1 0x80 PUSH1 0x40 MSTORE CALLVALUE PUSH1 0x0 DUP2 SWAP1 SSTORE POP PUSH2 0x822 DUP1 PUSH2 0x1A PUSH1 0x0 CODECOPY PUSH1 0x0 RETURN INVALID PUSH1 0x80 PUSH1 0x40 MSTORE PUSH1 0x4 CALLDATASIZE LT PUSH2 0x1E JUMPI PUSH1 0x0 CALLDATALOAD PUSH1 0xE0 SHR DUP1 PUSH4 0x7156D672 EQ PUSH2 0x23 JUMPI JUMPDEST PUSH1 0x0 DUP1 REVERT JUMPDEST PUSH2 0x3D PUSH1 0x4 DUP1 CALLDATASIZE SUB DUP2 ADD SWAP1 PUSH2 0x38 SWAP2 SWAP1 PUSH2 0x570 JUMP JUMPDEST PUSH2 0x3F JUMP JUMPDEST STOP JUMPDEST DUP1 MLOAD DUP3 MLOAD EQ PUSH2 0x83 JUMPI PUSH1 0x40 MLOAD PUSH32 0x8C379A000000000000000000000000000000000000000000000000000000000 DUP2 MSTORE PUSH1 0x4 ADD PUSH2 0x7A SWAP1 PUSH2 0x66B JUMP JUMPDEST PUSH1 0x40 MLOAD DUP1 SWAP2 SUB SWAP1 REVERT JUMPDEST PUSH1 0x0 PUSH2 0x8E DUP3 PUSH2 0x209 JUMP JUMPDEST SWAP1 POP DUP1 PUSH1 0x0 SLOAD LT ISZERO PUSH2 0xDB JUMPI DUP1 PUSH1 0x0 SLOAD PUSH1 0x40 MLOAD PUSH32 0xCF47918100000000000000000000000000000000000000000000000000000000 DUP2 MSTORE PUSH1 0x4 ADD PUSH2 0xD2 SWAP3 SWAP2 SWAP1 PUSH2 0x69A JUMP JUMPDEST PUSH1 0x40 MLOAD DUP1 SWAP2 SUB SWAP1 REVERT JUMPDEST PUSH1 0x0 JUMPDEST DUP4 MLOAD DUP2 LT ISZERO PUSH2 0x203 JUMPI DUP3 DUP2 DUP2 MLOAD DUP2 LT PUSH2 0xFA JUMPI PUSH2 0xF9 PUSH2 0x6C3 JUMP JUMPDEST JUMPDEST PUSH1 0x20 MUL PUSH1 0x20 ADD ADD MLOAD PUSH1 0x0 DUP1 DUP3 DUP3 SLOAD PUSH2 0x112 SWAP2 SWAP1 PUSH2 0x721 JUMP JUMPDEST SWAP3 POP POP DUP2 SWAP1 SSTORE POP PUSH2 0x157 DUP5 DUP3 DUP2 MLOAD DUP2 LT PUSH2 0x12F JUMPI PUSH2 0x12E PUSH2 0x6C3 JUMP JUMPDEST JUMPDEST PUSH1 0x20 MUL PUSH1 0x20 ADD ADD MLOAD DUP5 DUP4 DUP2 MLOAD DUP2 LT PUSH2 0x14A JUMPI PUSH2 0x149 PUSH2 0x6C3 JUMP JUMPDEST JUMPDEST PUSH1 0x20 MUL PUSH1 0x20 ADD ADD MLOAD PUSH2 0x261 JUMP JUMPDEST DUP4 DUP2 DUP2 MLOAD DUP2 LT PUSH2 0x16A JUMPI PUSH2 0x169 PUSH2 0x6C3 JUMP JUMPDEST JUMPDEST PUSH1 0x20 MUL PUSH1 0x20 ADD ADD MLOAD PUSH20 0xFFFFFFFFFFFFFFFFFFFFFFFFFFFFFFFFFFFFFFFF AND ADDRESS PUSH20 0xFFFFFFFFFFFFFFFFFFFFFFFFFFFFFFFFFFFFFFFF AND PUSH32 0xDDF252AD1BE2C89B69C2B068FC378DAA952BA7F163C4A11628F55A4DF523B3EF DUP6 DUP5 DUP2 MLOAD DUP2 LT PUSH2 0x1D3 JUMPI PUSH2 0x1D2 PUSH2 0x6C3 JUMP JUMPDEST JUMPDEST PUSH1 0x20 MUL PUSH1 0x20 ADD ADD MLOAD PUSH1 0x40 MLOAD PUSH2 0x1E8 SWAP2 SWAP1 PUSH2 0x755 JUMP JUMPDEST PUSH1 0x40 MLOAD DUP1 SWAP2 SUB SWAP1 LOG3 DUP1 DUP1 PUSH2 0x1FB SWAP1 PUSH2 0x770 JUMP JUMPDEST SWAP2 POP POP PUSH2 0xDE JUMP JUMPDEST POP POP POP POP JUMP JUMPDEST PUSH1 0x0 DUP1 PUSH1 0x0 SWAP1 POP PUSH1 0x0 JUMPDEST DUP4 MLOAD DUP2 LT ISZERO PUSH2 0x257 JUMPI DUP4 DUP2 DUP2 MLOAD DUP2 LT PUSH2 0x22F JUMPI PUSH2 0x22E PUSH2 0x6C3 JUMP JUMPDEST JUMPDEST PUSH1 0x20 MUL PUSH1 0x20 ADD ADD MLOAD DUP3 PUSH2 0x242 SWAP2 SWAP1 PUSH2 0x7B8 JUMP JUMPDEST SWAP2 POP DUP1 DUP1 PUSH2 0x24F SWAP1 PUSH2 0x770 JUMP JUMPDEST SWAP2 POP POP PUSH2 0x213 JUMP JUMPDEST POP DUP1 SWAP2 POP POP SWAP2 SWAP1 POP JUMP JUMPDEST DUP2 PUSH20 0xFFFFFFFFFFFFFFFFFFFFFFFFFFFFFFFFFFFFFFFF AND PUSH2 0x8FC DUP3 SWAP1 DUP2 ISZERO MUL SWAP1 PUSH1 0x40 MLOAD PUSH1 0x0 PUSH1 0x40 MLOAD DUP1 DUP4 SUB DUP2 DUP6 DUP9 DUP9 CALL SWAP4 POP POP POP POP ISZERO DUP1 ISZERO PUSH2 0x2A7 JUMPI RETURNDATASIZE PUSH1 0x0 DUP1 RETURNDATACOPY RETURNDATASIZE PUSH1 0x0 REVERT JUMPDEST POP POP POP JUMP JUMPDEST PUSH1 0x0 PUSH1 0x40 MLOAD SWAP1 POP SWAP1 JUMP JUMPDEST PUSH1 0x0 DUP1 REVERT JUMPDEST PUSH1 0x0 DUP1 REVERT JUMPDEST PUSH1 0x0 DUP1 REVERT JUMPDEST PUSH1 0x0 PUSH1 0x1F NOT PUSH1 0x1F DUP4 ADD AND SWAP1 POP SWAP2 SWAP1 POP JUMP JUMPDEST PUSH32 0x4E487B7100000000000000000000000000000000000000000000000000000000 PUSH1 0x0 MSTORE PUSH1 0x41 PUSH1 0x4 MSTORE PUSH1 0x24 PUSH1 0x0 REVERT JUMPDEST PUSH2 0x30E DUP3 PUSH2 0x2C5 JUMP JUMPDEST DUP2 ADD DUP2 DUP2 LT PUSH8 0xFFFFFFFFFFFFFFFF DUP3 GT OR ISZERO PUSH2 0x32D JUMPI PUSH2 0x32C PUSH2 0x2D6 JUMP JUMPDEST JUMPDEST DUP1 PUSH1 0x40 MSTORE POP POP POP JUMP JUMPDEST PUSH1 0x0 PUSH2 0x340 PUSH2 0x2AC JUMP JUMPDEST SWAP1 POP PUSH2 0x34C DUP3 DUP3 PUSH2 0x305 JUMP JUMPDEST SWAP2 SWAP1 POP JUMP JUMPDEST PUSH1 0x0 PUSH8 0xFFFFFFFFFFFFFFFF DUP3 GT ISZERO PUSH2 0x36C JUMPI PUSH2 0x36B PUSH2 0x2D6 JUMP JUMPDEST JUMPDEST PUSH1 0x20 DUP3 MUL SWAP1 POP PUSH1 0x20 DUP2 ADD SWAP1 POP SWAP2 SWAP1 POP JUMP JUMPDEST PUSH1 0x0 DUP1 REVERT JUMPDEST PUSH1 0x0 PUSH20 0xFFFFFFFFFFFFFFFFFFFFFFFFFFFFFFFFFFFFFFFF DUP3 AND SWAP1 POP SWAP2 SWAP1 POP JUMP JUMPDEST PUSH1 0x0 PUSH2 0x3AD DUP3 PUSH2 0x382 JUMP JUMPDEST SWAP1 POP SWAP2 SWAP1 POP JUMP JUMPDEST PUSH2 0x3BD DUP2 PUSH2 0x3A2 JUMP JUMPDEST DUP2 EQ PUSH2 0x3C8 JUMPI PUSH1 0x0 DUP1 REVERT JUMPDEST POP JUMP JUMPDEST PUSH1 0x0 DUP2 CALLDATALOAD SWAP1 POP PUSH2 0x3DA DUP2 PUSH2 0x3B4 JUMP JUMPDEST SWAP3 SWAP2 POP POP JUMP JUMPDEST PUSH1 0x0 PUSH2 0x3F3 PUSH2 0x3EE DUP5 PUSH2 0x351 JUMP JUMPDEST PUSH2 0x336 JUMP JUMPDEST SWAP1 POP DUP1 DUP4 DUP3 MSTORE PUSH1 0x20 DUP3 ADD SWAP1 POP PUSH1 0x20 DUP5 MUL DUP4 ADD DUP6 DUP2 GT ISZERO PUSH2 0x416 JUMPI PUSH2 0x415 PUSH2 0x37D JUMP JUMPDEST JUMPDEST DUP4 JUMPDEST DUP2 DUP2 LT ISZERO PUSH2 0x43F JUMPI DUP1 PUSH2 0x42B DUP9 DUP3 PUSH2 0x3CB JUMP JUMPDEST DUP5 MSTORE PUSH1 0x20 DUP5 ADD SWAP4 POP POP PUSH1 0x20 DUP2 ADD SWAP1 POP PUSH2 0x418 JUMP JUMPDEST POP POP POP SWAP4 SWAP3 POP POP POP JUMP JUMPDEST PUSH1 0x0 DUP3 PUSH1 0x1F DUP4 ADD SLT PUSH2 0x45E JUMPI PUSH2 0x45D PUSH2 0x2C0 JUMP JUMPDEST JUMPDEST DUP2 CALLDATALOAD PUSH2 0x46E DUP5 DUP3 PUSH1 0x20 DUP7 ADD PUSH2 0x3E0 JUMP JUMPDEST SWAP2 POP POP SWAP3 SWAP2 POP POP JUMP JUMPDEST PUSH1 0x0 PUSH8 0xFFFFFFFFFFFFFFFF DUP3 GT ISZERO PUSH2 0x492 JUMPI PUSH2 0x491 PUSH2 0x2D6 JUMP JUMPDEST JUMPDEST PUSH1 0x20 DUP3 MUL SWAP1 POP PUSH1 0x20 DUP2 ADD SWAP1 POP SWAP2 SWAP1 POP JUMP JUMPDEST PUSH1 0x0 DUP2 SWAP1 POP SWAP2 SWAP1 POP JUMP JUMPDEST PUSH2 0x4B6 DUP2 PUSH2 0x4A3 JUMP JUMPDEST DUP2 EQ PUSH2 0x4C1 JUMPI PUSH1 0x0 DUP1 REVERT JUMPDEST POP JUMP JUMPDEST PUSH1 0x0 DUP2 CALLDATALOAD SWAP1 POP PUSH2 0x4D3 DUP2 PUSH2 0x4AD JUMP JUMPDEST SWAP3 SWAP2 POP POP JUMP JUMPDEST PUSH1 0x0 PUSH2 0x4EC PUSH2 0x4E7 DUP5 PUSH2 0x477 JUMP JUMPDEST PUSH2 0x336 JUMP JUMPDEST SWAP1 POP DUP1 DUP4 DUP3 MSTORE PUSH1 0x20 DUP3 ADD SWAP1 POP PUSH1 0x20 DUP5 MUL DUP4 ADD DUP6 DUP2 GT ISZERO PUSH2 0x50F JUMPI PUSH2 0x50E PUSH2 0x37D JUMP JUMPDEST JUMPDEST DUP4 JUMPDEST DUP2 DUP2 LT ISZERO PUSH2 0x538 JUMPI DUP1 PUSH2 0x524 DUP9 DUP3 PUSH2 0x4C4 JUMP JUMPDEST DUP5 MSTORE PUSH1 0x20 DUP5 ADD SWAP4 POP POP PUSH1 0x20 DUP2 ADD SWAP1 POP PUSH2 0x511 JUMP JUMPDEST POP POP POP SWAP4 SWAP3 POP POP POP JUMP JUMPDEST PUSH1 0x0 DUP3 PUSH1 0x1F DUP4 ADD SLT PUSH2 0x557 JUMPI PUSH2 0x556 PUSH2 0x2C0 JUMP JUMPDEST JUMPDEST DUP2 CALLDATALOAD PUSH2 0x567 DUP5 DUP3 PUSH1 0x20 DUP7 ADD PUSH2 0x4D9 JUMP JUMPDEST SWAP2 POP POP SWAP3 SWAP2 POP POP JUMP JUMPDEST PUSH1 0x0 DUP1 PUSH1 0x40 DUP4 DUP6 SUB SLT ISZERO PUSH2 0x587 JUMPI PUSH2 0x586 PUSH2 0x2B6 JUMP JUMPDEST JUMPDEST PUSH1 0x0 DUP4 ADD CALLDATALOAD PUSH8 0xFFFFFFFFFFFFFFFF DUP2 GT ISZERO PUSH2 0x5A5 JUMPI PUSH2 0x5A4 PUSH2 0x2BB JUMP JUMPDEST JUMPDEST PUSH2 0x5B1 DUP6 DUP3 DUP7 ADD PUSH2 0x449 JUMP JUMPDEST SWAP3 POP POP PUSH1 0x20 DUP4 ADD CALLDATALOAD PUSH8 0xFFFFFFFFFFFFFFFF DUP2 GT ISZERO PUSH2 0x5D2 JUMPI PUSH2 0x5D1 PUSH2 0x2BB JUMP JUMPDEST JUMPDEST PUSH2 0x5DE DUP6 DUP3 DUP7 ADD PUSH2 0x542 JUMP JUMPDEST SWAP2 POP POP SWAP3 POP SWAP3 SWAP1 POP JUMP JUMPDEST PUSH1 0x0 DUP3 DUP3 MSTORE PUSH1 0x20 DUP3 ADD SWAP1 POP SWAP3 SWAP2 POP POP JUMP JUMPDEST PUSH32 0x4D7573742070726F766964652073616D65206E756D626572206F662061646472 PUSH1 0x0 DUP3 ADD MSTORE PUSH32 0x657373657320616E6420616D6F756E74732E0000000000000000000000000000 PUSH1 0x20 DUP3 ADD MSTORE POP JUMP JUMPDEST PUSH1 0x0 PUSH2 0x655 PUSH1 0x32 DUP4 PUSH2 0x5E8 JUMP JUMPDEST SWAP2 POP PUSH2 0x660 DUP3 PUSH2 0x5F9 JUMP JUMPDEST PUSH1 0x40 DUP3 ADD SWAP1 POP SWAP2 SWAP1 POP JUMP JUMPDEST PUSH1 0x0 PUSH1 0x20 DUP3 ADD SWAP1 POP DUP2 DUP2 SUB PUSH1 0x0 DUP4 ADD MSTORE PUSH2 0x684 DUP2 PUSH2 0x648 JUMP JUMPDEST SWAP1 POP SWAP2 SWAP1 POP JUMP JUMPDEST PUSH2 0x694 DUP2 PUSH2 0x4A3 JUMP JUMPDEST DUP3 MSTORE POP POP JUMP JUMPDEST PUSH1 0x0 PUSH1 0x40 DUP3 ADD SWAP1 POP PUSH2 0x6AF PUSH1 0x0 DUP4 ADD DUP6 PUSH2 0x68B JUMP JUMPDEST PUSH2 0x6BC PUSH1 0x20 DUP4 ADD DUP5 PUSH2 0x68B JUMP JUMPDEST SWAP4 SWAP3 POP POP POP JUMP JUMPDEST PUSH32 0x4E487B7100000000000000000000000000000000000000000000000000000000 PUSH1 0x0 MSTORE PUSH1 0x32 PUSH1 0x4 MSTORE PUSH1 0x24 PUSH1 0x0 REVERT JUMPDEST PUSH32 0x4E487B7100000000000000000000000000000000000000000000000000000000 PUSH1 0x0 MSTORE PUSH1 0x11 PUSH1 0x4 MSTORE PUSH1 0x24 PUSH1 0x0 REVERT JUMPDEST PUSH1 0x0 PUSH2 0x72C DUP3 PUSH2 0x4A3 JUMP JUMPDEST SWAP2 POP PUSH2 0x737 DUP4 PUSH2 0x4A3 JUMP JUMPDEST SWAP3 POP DUP3 DUP3 SUB SWAP1 POP DUP2 DUP2 GT ISZERO PUSH2 0x74F JUMPI PUSH2 0x74E PUSH2 0x6F2 JUMP JUMPDEST JUMPDEST SWAP3 SWAP2 POP POP JUMP JUMPDEST PUSH1 0x0 PUSH1 0x20 DUP3 ADD SWAP1 POP PUSH2 0x76A PUSH1 0x0 DUP4 ADD DUP5 PUSH2 0x68B JUMP JUMPDEST SWAP3 SWAP2 POP POP JUMP JUMPDEST PUSH1 0x0 PUSH2 0x77B DUP3 PUSH2 0x4A3 JUMP JUMPDEST SWAP2 POP PUSH32 0xFFFFFFFFFFFFFFFFFFFFFFFFFFFFFFFFFFFFFFFFFFFFFFFFFFFFFFFFFFFFFFFF DUP3 SUB PUSH2 0x7AD JUMPI PUSH2 0x7AC PUSH2 0x6F2 JUMP JUMPDEST JUMPDEST PUSH1 0x1 DUP3 ADD SWAP1 POP SWAP2 SWAP1 POP JUMP JUMPDEST PUSH1 0x0 PUSH2 0x7C3 DUP3 PUSH2 0x4A3 JUMP JUMPDEST SWAP2 POP PUSH2 0x7CE DUP4 PUSH2 0x4A3 JUMP JUMPDEST SWAP3 POP DUP3 DUP3 ADD SWAP1 POP DUP1 DUP3 GT ISZERO PUSH2 0x7E6 JUMPI PUSH2 0x7E5 PUSH2 0x6F2 JUMP JUMPDEST JUMPDEST SWAP3 SWAP2 POP POP JUMP INVALID LOG2 PUSH5 0x6970667358 0x22 SLT KECCAK256 MLOAD 0xAF 0xB2 0x27 BLOCKHASH PUSH16 0xA6C7F7316494ACCA52FD93FAB902F7C2 0x2D 0xA6 AND PUSH23 0x4473D7525B7764736F6C63430008110033000000000000 "
        },
        "gasEstimates": {
            "creation": {
                "codeDepositCost": "416400",
                "executionCost": "22544",
                "totalCost": "438944"
            },
            "external": {
                "sendAll(address[],uint256[])": "infinite"
            },
            "internal": {
                "amountsSum(uint256[] memory)": "infinite",
                "send(address payable,uint256)": "infinite"
            }
        },
        "methodIdentifiers": {
            "sendAll(address[],uint256[])": "7156d672"
        }
    },
    "storageLayout": {
        "storage": [
            {
                "astId": 3,
                "contract": "MultiSend.sol:MultiSend",
                "label": "total_value",
                "offset": 0,
                "slot": "0",
                "type": "t_uint256"
            }
        ],
        "types": {
            "t_uint256": {
                "encoding": "inplace",
                "label": "uint256",
                "numberOfBytes": "32"
            }
        }
    },
    "userdoc": {
        "kind": "user",
        "methods": {},
        "version": 1
    }
}