{"abi":[{"inputs":[],"stateMutability":"payable","type":"constructor"},{"inputs":[{"internalType":"uint256","name":"sent","type":"uint256"},{"internalType":"uint256","name":"maxAvailable","type":"uint256"}],"name":"InsufficientBalance","type":"error"},{"anonymous":false,"inputs":[{"indexed":true,"internalType":"address","name":"from","type":"address"},{"indexed":true,"internalType":"address","name":"to","type":"address"},{"indexed":false,"internalType":"uint256","name":"value","type":"uint256"}],"name":"Transfer","type":"event"},{"inputs":[{"internalType":"uint256","name":"amount","type":"uint256"}],"name":"deposit","outputs":[],"stateMutability":"payable","type":"function"},{"inputs":[{"internalType":"address payable[]","name":"addresses","type":"address[]"},{"internalType":"uint256[]","name":"amounts","type":"uint256[]"}],"name":"sendAll","outputs":[],"stateMutability":"payable","type":"function"}],"devdoc":{"kind":"dev","methods":{},"version":1},"evm":{"assembly":"    /* \"MultiSend.sol\":25:1328  contract MultiSend {... */\n  mstore(0x40, 0x80)\n    /* \"MultiSend.sol\":260:269  msg.value */\n  callvalue\n    /* \"MultiSend.sol\":246:257  total_value */\n  0x00\n    /* \"MultiSend.sol\":246:269  total_value = msg.value */\n  dup2\n  swap1\n  sstore\n  pop\n    /* \"MultiSend.sol\":25:1328  contract MultiSend {... */\n  dataSize(sub_0)\n  dup1\n  dataOffset(sub_0)\n  0x00\n  codecopy\n  0x00\n  return\nstop\n\nsub_0: assembly {\n        /* \"MultiSend.sol\":25:1328  contract MultiSend {... */\n      mstore(0x40, 0x80)\n      jumpi(tag_1, lt(calldatasize, 0x04))\n      shr(0xe0, calldataload(0x00))\n      dup1\n      0x7156d672\n      eq\n      tag_2\n      jumpi\n      dup1\n      0xb6b55f25\n      eq\n      tag_3\n      jumpi\n    tag_1:\n      0x00\n      dup1\n      revert\n        /* \"MultiSend.sol\":730:1326  function sendAll (address payable[] memory addresses, uint[] memory amounts) payable public {... */\n    tag_2:\n      tag_4\n      0x04\n      dup1\n      calldatasize\n      sub\n      dup2\n      add\n      swap1\n      tag_5\n      swap2\n      swap1\n      tag_6\n      jump\t// in\n    tag_5:\n      tag_7\n      jump\t// in\n    tag_4:\n      stop\n        /* \"MultiSend.sol\":482:601  function deposit(uint256 amount) payable public {... */\n    tag_3:\n      tag_8\n      0x04\n      dup1\n      calldatasize\n      sub\n      dup2\n      add\n      swap1\n      tag_9\n      swap2\n      swap1\n      tag_10\n      jump\t// in\n    tag_9:\n      tag_11\n      jump\t// in\n    tag_8:\n      stop\n        /* \"MultiSend.sol\":730:1326  function sendAll (address payable[] memory addresses, uint[] memory amounts) payable public {... */\n    tag_7:\n        /* \"MultiSend.sol\":859:866  amounts */\n      dup1\n        /* \"MultiSend.sol\":859:873  amounts.length */\n      mload\n        /* \"MultiSend.sol\":839:848  addresses */\n      dup3\n        /* \"MultiSend.sol\":839:855  addresses.length */\n      mload\n        /* \"MultiSend.sol\":839:873  addresses.length == amounts.length */\n      eq\n        /* \"MultiSend.sol\":831:928  require(addresses.length == amounts.length, \"Must provide same number of addresses and amounts.\") */\n      tag_13\n      jumpi\n      mload(0x40)\n      0x08c379a000000000000000000000000000000000000000000000000000000000\n      dup2\n      mstore\n      0x04\n      add\n      tag_14\n      swap1\n      tag_15\n      jump\t// in\n    tag_14:\n      mload(0x40)\n      dup1\n      swap2\n      sub\n      swap1\n      revert\n    tag_13:\n        /* \"MultiSend.sol\":939:950  uint amtSum */\n      0x00\n        /* \"MultiSend.sol\":953:972  amountsSum(amounts) */\n      tag_16\n        /* \"MultiSend.sol\":964:971  amounts */\n      dup3\n        /* \"MultiSend.sol\":953:963  amountsSum */\n      tag_17\n        /* \"MultiSend.sol\":953:972  amountsSum(amounts) */\n      jump\t// in\n    tag_16:\n        /* \"MultiSend.sol\":939:972  uint amtSum = amountsSum(amounts) */\n      swap1\n      pop\n        /* \"MultiSend.sol\":1001:1007  amtSum */\n      dup1\n        /* \"MultiSend.sol\":987:998  total_value */\n      sload(0x00)\n        /* \"MultiSend.sol\":987:1007  total_value < amtSum */\n      lt\n        /* \"MultiSend.sol\":983:1117  if (total_value < amtSum) {... */\n      iszero\n      tag_18\n      jumpi\n        /* \"MultiSend.sol\":1060:1066  amtSum */\n      dup1\n        /* \"MultiSend.sol\":1090:1101  total_value */\n      sload(0x00)\n        /* \"MultiSend.sol\":1024:1110  InsufficientBalance({... */\n      mload(0x40)\n      0xcf47918100000000000000000000000000000000000000000000000000000000\n      dup2\n      mstore\n      0x04\n      add\n      tag_19\n      swap3\n      swap2\n      swap1\n      tag_20\n      jump\t// in\n    tag_19:\n      mload(0x40)\n      dup1\n      swap2\n      sub\n      swap1\n      revert\n        /* \"MultiSend.sol\":983:1117  if (total_value < amtSum) {... */\n    tag_18:\n        /* \"MultiSend.sol\":1143:1149  uint i */\n      0x00\n        /* \"MultiSend.sol\":1138:1322  for (uint i = 0; i < addresses.length; i++) {... */\n    tag_21:\n        /* \"MultiSend.sol\":1159:1168  addresses */\n      dup4\n        /* \"MultiSend.sol\":1159:1175  addresses.length */\n      mload\n        /* \"MultiSend.sol\":1155:1156  i */\n      dup2\n        /* \"MultiSend.sol\":1155:1175  i < addresses.length */\n      lt\n        /* \"MultiSend.sol\":1138:1322  for (uint i = 0; i < addresses.length; i++) {... */\n      iszero\n      tag_22\n      jumpi\n        /* \"MultiSend.sol\":1205:1212  amounts */\n      dup3\n        /* \"MultiSend.sol\":1213:1214  i */\n      dup2\n        /* \"MultiSend.sol\":1205:1215  amounts[i] */\n      dup2\n      mload\n      dup2\n      lt\n      tag_24\n      jumpi\n      tag_25\n      tag_26\n      jump\t// in\n    tag_25:\n    tag_24:\n      0x20\n      mul\n      0x20\n      add\n      add\n      mload\n        /* \"MultiSend.sol\":1190:1201  total_value */\n      0x00\n      dup1\n        /* \"MultiSend.sol\":1190:1215  total_value -= amounts[i] */\n      dup3\n      dup3\n      sload\n      tag_27\n      swap2\n      swap1\n      tag_28\n      jump\t// in\n    tag_27:\n      swap3\n      pop\n      pop\n      dup2\n      swap1\n      sstore\n      pop\n        /* \"MultiSend.sol\":1223:1253  send(addresses[i], amounts[i]) */\n      tag_29\n        /* \"MultiSend.sol\":1228:1237  addresses */\n      dup5\n        /* \"MultiSend.sol\":1238:1239  i */\n      dup3\n        /* \"MultiSend.sol\":1228:1240  addresses[i] */\n      dup2\n      mload\n      dup2\n      lt\n      tag_30\n      jumpi\n      tag_31\n      tag_26\n      jump\t// in\n    tag_31:\n    tag_30:\n      0x20\n      mul\n      0x20\n      add\n      add\n      mload\n        /* \"MultiSend.sol\":1242:1249  amounts */\n      dup5\n        /* \"MultiSend.sol\":1250:1251  i */\n      dup4\n        /* \"MultiSend.sol\":1242:1252  amounts[i] */\n      dup2\n      mload\n      dup2\n      lt\n      tag_32\n      jumpi\n      tag_33\n      tag_26\n      jump\t// in\n    tag_33:\n    tag_32:\n      0x20\n      mul\n      0x20\n      add\n      add\n      mload\n        /* \"MultiSend.sol\":1223:1227  send */\n      tag_34\n        /* \"MultiSend.sol\":1223:1253  send(addresses[i], amounts[i]) */\n      jump\t// in\n    tag_29:\n        /* \"MultiSend.sol\":1290:1299  addresses */\n      dup4\n        /* \"MultiSend.sol\":1300:1301  i */\n      dup2\n        /* \"MultiSend.sol\":1290:1302  addresses[i] */\n      dup2\n      mload\n      dup2\n      lt\n      tag_35\n      jumpi\n      tag_36\n      tag_26\n      jump\t// in\n    tag_36:\n    tag_35:\n      0x20\n      mul\n      0x20\n      add\n      add\n      mload\n        /* \"MultiSend.sol\":1266:1315  Transfer(address(this), addresses[i], amounts[i]) */\n      0xffffffffffffffffffffffffffffffffffffffff\n      and\n        /* \"MultiSend.sol\":1283:1287  this */\n      address\n        /* \"MultiSend.sol\":1266:1315  Transfer(address(this), addresses[i], amounts[i]) */\n      0xffffffffffffffffffffffffffffffffffffffff\n      and\n      0xddf252ad1be2c89b69c2b068fc378daa952ba7f163c4a11628f55a4df523b3ef\n        /* \"MultiSend.sol\":1304:1311  amounts */\n      dup6\n        /* \"MultiSend.sol\":1312:1313  i */\n      dup5\n        /* \"MultiSend.sol\":1304:1314  amounts[i] */\n      dup2\n      mload\n      dup2\n      lt\n      tag_37\n      jumpi\n      tag_38\n      tag_26\n      jump\t// in\n    tag_38:\n    tag_37:\n      0x20\n      mul\n      0x20\n      add\n      add\n      mload\n        /* \"MultiSend.sol\":1266:1315  Transfer(address(this), addresses[i], amounts[i]) */\n      mload(0x40)\n      tag_39\n      swap2\n      swap1\n      tag_40\n      jump\t// in\n    tag_39:\n      mload(0x40)\n      dup1\n      swap2\n      sub\n      swap1\n      log3\n        /* \"MultiSend.sol\":1177:1180  i++ */\n      dup1\n      dup1\n      tag_41\n      swap1\n      tag_42\n      jump\t// in\n    tag_41:\n      swap2\n      pop\n      pop\n        /* \"MultiSend.sol\":1138:1322  for (uint i = 0; i < addresses.length; i++) {... */\n      jump(tag_21)\n    tag_22:\n      pop\n        /* \"MultiSend.sol\":822:1326  {... */\n      pop\n        /* \"MultiSend.sol\":730:1326  function sendAll (address payable[] memory addresses, uint[] memory amounts) payable public {... */\n      pop\n      pop\n      jump\t// out\n        /* \"MultiSend.sol\":482:601  function deposit(uint256 amount) payable public {... */\n    tag_11:\n        /* \"MultiSend.sol\":587:596  msg.value */\n      callvalue\n        /* \"MultiSend.sol\":572:583  total_value */\n      0x00\n      dup1\n        /* \"MultiSend.sol\":572:596  total_value += msg.value */\n      dup3\n      dup3\n      sload\n      tag_44\n      swap2\n      swap1\n      tag_45\n      jump\t// in\n    tag_44:\n      swap3\n      pop\n      pop\n      dup2\n      swap1\n      sstore\n      pop\n        /* \"MultiSend.sol\":482:601  function deposit(uint256 amount) payable public {... */\n      pop\n      jump\t// out\n        /* \"MultiSend.sol\":280:476  function amountsSum (uint[] memory amounts) private returns (uint ret) {... */\n    tag_17:\n        /* \"MultiSend.sol\":341:349  uint ret */\n      0x00\n        /* \"MultiSend.sol\":360:368  uint sum */\n      dup1\n        /* \"MultiSend.sol\":371:372  0 */\n      0x00\n        /* \"MultiSend.sol\":360:372  uint sum = 0 */\n      swap1\n      pop\n        /* \"MultiSend.sol\":387:393  uint i */\n      0x00\n        /* \"MultiSend.sol\":383:456  for(uint i = 0; i < amounts.length; i++) {... */\n    tag_47:\n        /* \"MultiSend.sol\":403:410  amounts */\n      dup4\n        /* \"MultiSend.sol\":403:417  amounts.length */\n      mload\n        /* \"MultiSend.sol\":399:400  i */\n      dup2\n        /* \"MultiSend.sol\":399:417  i < amounts.length */\n      lt\n        /* \"MultiSend.sol\":383:456  for(uint i = 0; i < amounts.length; i++) {... */\n      iszero\n      tag_48\n      jumpi\n        /* \"MultiSend.sol\":439:446  amounts */\n      dup4\n        /* \"MultiSend.sol\":447:448  i */\n      dup2\n        /* \"MultiSend.sol\":439:449  amounts[i] */\n      dup2\n      mload\n      dup2\n      lt\n      tag_50\n      jumpi\n      tag_51\n      tag_26\n      jump\t// in\n    tag_51:\n    tag_50:\n      0x20\n      mul\n      0x20\n      add\n      add\n      mload\n        /* \"MultiSend.sol\":432:449  sum += amounts[i] */\n      dup3\n      tag_52\n      swap2\n      swap1\n      tag_45\n      jump\t// in\n    tag_52:\n      swap2\n      pop\n        /* \"MultiSend.sol\":419:422  i++ */\n      dup1\n      dup1\n      tag_53\n      swap1\n      tag_42\n      jump\t// in\n    tag_53:\n      swap2\n      pop\n      pop\n        /* \"MultiSend.sol\":383:456  for(uint i = 0; i < amounts.length; i++) {... */\n      jump(tag_47)\n    tag_48:\n      pop\n        /* \"MultiSend.sol\":468:471  sum */\n      dup1\n        /* \"MultiSend.sol\":461:471  return sum */\n      swap2\n      pop\n      pop\n        /* \"MultiSend.sol\":280:476  function amountsSum (uint[] memory amounts) private returns (uint ret) {... */\n      swap2\n      swap1\n      pop\n      jump\t// out\n        /* \"MultiSend.sol\":607:724  function send(address payable receiverAddr, uint receiverAmnt) private {... */\n    tag_34:\n        /* \"MultiSend.sol\":684:696  receiverAddr */\n      dup2\n        /* \"MultiSend.sol\":684:705  receiverAddr.transfer */\n      0xffffffffffffffffffffffffffffffffffffffff\n      and\n        /* \"MultiSend.sol\":684:719  receiverAddr.transfer(receiverAmnt) */\n      0x08fc\n        /* \"MultiSend.sol\":706:718  receiverAmnt */\n      dup3\n        /* \"MultiSend.sol\":684:719  receiverAddr.transfer(receiverAmnt) */\n      swap1\n      dup2\n      iszero\n      mul\n      swap1\n      mload(0x40)\n      0x00\n      mload(0x40)\n      dup1\n      dup4\n      sub\n      dup2\n      dup6\n      dup9\n      dup9\n      call\n      swap4\n      pop\n      pop\n      pop\n      pop\n      iszero\n      dup1\n      iszero\n      tag_56\n      jumpi\n      returndatasize\n      0x00\n      dup1\n      returndatacopy\n      revert(0x00, returndatasize)\n    tag_56:\n      pop\n        /* \"MultiSend.sol\":607:724  function send(address payable receiverAddr, uint receiverAmnt) private {... */\n      pop\n      pop\n      jump\t// out\n        /* \"#utility.yul\":7:82   */\n    tag_57:\n        /* \"#utility.yul\":40:46   */\n      0x00\n        /* \"#utility.yul\":73:75   */\n      0x40\n        /* \"#utility.yul\":67:76   */\n      mload\n        /* \"#utility.yul\":57:76   */\n      swap1\n      pop\n        /* \"#utility.yul\":7:82   */\n      swap1\n      jump\t// out\n        /* \"#utility.yul\":88:205   */\n    tag_58:\n        /* \"#utility.yul\":197:198   */\n      0x00\n        /* \"#utility.yul\":194:195   */\n      dup1\n        /* \"#utility.yul\":187:199   */\n      revert\n        /* \"#utility.yul\":211:328   */\n    tag_59:\n        /* \"#utility.yul\":320:321   */\n      0x00\n        /* \"#utility.yul\":317:318   */\n      dup1\n        /* \"#utility.yul\":310:322   */\n      revert\n        /* \"#utility.yul\":334:451   */\n    tag_60:\n        /* \"#utility.yul\":443:444   */\n      0x00\n        /* \"#utility.yul\":440:441   */\n      dup1\n        /* \"#utility.yul\":433:445   */\n      revert\n        /* \"#utility.yul\":457:559   */\n    tag_61:\n        /* \"#utility.yul\":498:504   */\n      0x00\n        /* \"#utility.yul\":549:551   */\n      0x1f\n        /* \"#utility.yul\":545:552   */\n      not\n        /* \"#utility.yul\":540:542   */\n      0x1f\n        /* \"#utility.yul\":533:538   */\n      dup4\n        /* \"#utility.yul\":529:543   */\n      add\n        /* \"#utility.yul\":525:553   */\n      and\n        /* \"#utility.yul\":515:553   */\n      swap1\n      pop\n        /* \"#utility.yul\":457:559   */\n      swap2\n      swap1\n      pop\n      jump\t// out\n        /* \"#utility.yul\":565:745   */\n    tag_62:\n        /* \"#utility.yul\":613:690   */\n      0x4e487b7100000000000000000000000000000000000000000000000000000000\n        /* \"#utility.yul\":610:611   */\n      0x00\n        /* \"#utility.yul\":603:691   */\n      mstore\n        /* \"#utility.yul\":710:714   */\n      0x41\n        /* \"#utility.yul\":707:708   */\n      0x04\n        /* \"#utility.yul\":700:715   */\n      mstore\n        /* \"#utility.yul\":734:738   */\n      0x24\n        /* \"#utility.yul\":731:732   */\n      0x00\n        /* \"#utility.yul\":724:739   */\n      revert\n        /* \"#utility.yul\":751:1032   */\n    tag_63:\n        /* \"#utility.yul\":834:861   */\n      tag_92\n        /* \"#utility.yul\":856:860   */\n      dup3\n        /* \"#utility.yul\":834:861   */\n      tag_61\n      jump\t// in\n    tag_92:\n        /* \"#utility.yul\":826:832   */\n      dup2\n        /* \"#utility.yul\":822:862   */\n      add\n        /* \"#utility.yul\":964:970   */\n      dup2\n        /* \"#utility.yul\":952:962   */\n      dup2\n        /* \"#utility.yul\":949:971   */\n      lt\n        /* \"#utility.yul\":928:946   */\n      0xffffffffffffffff\n        /* \"#utility.yul\":916:926   */\n      dup3\n        /* \"#utility.yul\":913:947   */\n      gt\n        /* \"#utility.yul\":910:972   */\n      or\n        /* \"#utility.yul\":907:995   */\n      iszero\n      tag_93\n      jumpi\n        /* \"#utility.yul\":975:993   */\n      tag_94\n      tag_62\n      jump\t// in\n    tag_94:\n        /* \"#utility.yul\":907:995   */\n    tag_93:\n        /* \"#utility.yul\":1015:1025   */\n      dup1\n        /* \"#utility.yul\":1011:1013   */\n      0x40\n        /* \"#utility.yul\":1004:1026   */\n      mstore\n        /* \"#utility.yul\":794:1032   */\n      pop\n        /* \"#utility.yul\":751:1032   */\n      pop\n      pop\n      jump\t// out\n        /* \"#utility.yul\":1038:1167   */\n    tag_64:\n        /* \"#utility.yul\":1072:1078   */\n      0x00\n        /* \"#utility.yul\":1099:1119   */\n      tag_96\n      tag_57\n      jump\t// in\n    tag_96:\n        /* \"#utility.yul\":1089:1119   */\n      swap1\n      pop\n        /* \"#utility.yul\":1128:1161   */\n      tag_97\n        /* \"#utility.yul\":1156:1160   */\n      dup3\n        /* \"#utility.yul\":1148:1154   */\n      dup3\n        /* \"#utility.yul\":1128:1161   */\n      tag_63\n      jump\t// in\n    tag_97:\n        /* \"#utility.yul\":1038:1167   */\n      swap2\n      swap1\n      pop\n      jump\t// out\n        /* \"#utility.yul\":1173:1492   */\n    tag_65:\n        /* \"#utility.yul\":1258:1262   */\n      0x00\n        /* \"#utility.yul\":1348:1366   */\n      0xffffffffffffffff\n        /* \"#utility.yul\":1340:1346   */\n      dup3\n        /* \"#utility.yul\":1337:1367   */\n      gt\n        /* \"#utility.yul\":1334:1390   */\n      iszero\n      tag_99\n      jumpi\n        /* \"#utility.yul\":1370:1388   */\n      tag_100\n      tag_62\n      jump\t// in\n    tag_100:\n        /* \"#utility.yul\":1334:1390   */\n    tag_99:\n        /* \"#utility.yul\":1420:1424   */\n      0x20\n        /* \"#utility.yul\":1412:1418   */\n      dup3\n        /* \"#utility.yul\":1408:1425   */\n      mul\n        /* \"#utility.yul\":1400:1425   */\n      swap1\n      pop\n        /* \"#utility.yul\":1480:1484   */\n      0x20\n        /* \"#utility.yul\":1474:1478   */\n      dup2\n        /* \"#utility.yul\":1470:1485   */\n      add\n        /* \"#utility.yul\":1462:1485   */\n      swap1\n      pop\n        /* \"#utility.yul\":1173:1492   */\n      swap2\n      swap1\n      pop\n      jump\t// out\n        /* \"#utility.yul\":1498:1615   */\n    tag_66:\n        /* \"#utility.yul\":1607:1608   */\n      0x00\n        /* \"#utility.yul\":1604:1605   */\n      dup1\n        /* \"#utility.yul\":1597:1609   */\n      revert\n        /* \"#utility.yul\":1621:1747   */\n    tag_67:\n        /* \"#utility.yul\":1658:1665   */\n      0x00\n        /* \"#utility.yul\":1698:1740   */\n      0xffffffffffffffffffffffffffffffffffffffff\n        /* \"#utility.yul\":1691:1696   */\n      dup3\n        /* \"#utility.yul\":1687:1741   */\n      and\n        /* \"#utility.yul\":1676:1741   */\n      swap1\n      pop\n        /* \"#utility.yul\":1621:1747   */\n      swap2\n      swap1\n      pop\n      jump\t// out\n        /* \"#utility.yul\":1753:1857   */\n    tag_68:\n        /* \"#utility.yul\":1798:1805   */\n      0x00\n        /* \"#utility.yul\":1827:1851   */\n      tag_104\n        /* \"#utility.yul\":1845:1850   */\n      dup3\n        /* \"#utility.yul\":1827:1851   */\n      tag_67\n      jump\t// in\n    tag_104:\n        /* \"#utility.yul\":1816:1851   */\n      swap1\n      pop\n        /* \"#utility.yul\":1753:1857   */\n      swap2\n      swap1\n      pop\n      jump\t// out\n        /* \"#utility.yul\":1863:2001   */\n    tag_69:\n        /* \"#utility.yul\":1944:1976   */\n      tag_106\n        /* \"#utility.yul\":1970:1975   */\n      dup2\n        /* \"#utility.yul\":1944:1976   */\n      tag_68\n      jump\t// in\n    tag_106:\n        /* \"#utility.yul\":1937:1942   */\n      dup2\n        /* \"#utility.yul\":1934:1977   */\n      eq\n        /* \"#utility.yul\":1924:1995   */\n      tag_107\n      jumpi\n        /* \"#utility.yul\":1991:1992   */\n      0x00\n        /* \"#utility.yul\":1988:1989   */\n      dup1\n        /* \"#utility.yul\":1981:1993   */\n      revert\n        /* \"#utility.yul\":1924:1995   */\n    tag_107:\n        /* \"#utility.yul\":1863:2001   */\n      pop\n      jump\t// out\n        /* \"#utility.yul\":2007:2162   */\n    tag_70:\n        /* \"#utility.yul\":2061:2066   */\n      0x00\n        /* \"#utility.yul\":2099:2105   */\n      dup2\n        /* \"#utility.yul\":2086:2106   */\n      calldataload\n        /* \"#utility.yul\":2077:2106   */\n      swap1\n      pop\n        /* \"#utility.yul\":2115:2156   */\n      tag_109\n        /* \"#utility.yul\":2150:2155   */\n      dup2\n        /* \"#utility.yul\":2115:2156   */\n      tag_69\n      jump\t// in\n    tag_109:\n        /* \"#utility.yul\":2007:2162   */\n      swap3\n      swap2\n      pop\n      pop\n      jump\t// out\n        /* \"#utility.yul\":2193:2927   */\n    tag_71:\n        /* \"#utility.yul\":2297:2302   */\n      0x00\n        /* \"#utility.yul\":2322:2411   */\n      tag_111\n        /* \"#utility.yul\":2338:2410   */\n      tag_112\n        /* \"#utility.yul\":2403:2409   */\n      dup5\n        /* \"#utility.yul\":2338:2410   */\n      tag_65\n      jump\t// in\n    tag_112:\n        /* \"#utility.yul\":2322:2411   */\n      tag_64\n      jump\t// in\n    tag_111:\n        /* \"#utility.yul\":2313:2411   */\n      swap1\n      pop\n        /* \"#utility.yul\":2431:2436   */\n      dup1\n        /* \"#utility.yul\":2460:2466   */\n      dup4\n        /* \"#utility.yul\":2453:2458   */\n      dup3\n        /* \"#utility.yul\":2446:2467   */\n      mstore\n        /* \"#utility.yul\":2494:2498   */\n      0x20\n        /* \"#utility.yul\":2487:2492   */\n      dup3\n        /* \"#utility.yul\":2483:2499   */\n      add\n        /* \"#utility.yul\":2476:2499   */\n      swap1\n      pop\n        /* \"#utility.yul\":2547:2551   */\n      0x20\n        /* \"#utility.yul\":2539:2545   */\n      dup5\n        /* \"#utility.yul\":2535:2552   */\n      mul\n        /* \"#utility.yul\":2527:2533   */\n      dup4\n        /* \"#utility.yul\":2523:2553   */\n      add\n        /* \"#utility.yul\":2576:2579   */\n      dup6\n        /* \"#utility.yul\":2568:2574   */\n      dup2\n        /* \"#utility.yul\":2565:2580   */\n      gt\n        /* \"#utility.yul\":2562:2684   */\n      iszero\n      tag_113\n      jumpi\n        /* \"#utility.yul\":2595:2674   */\n      tag_114\n      tag_66\n      jump\t// in\n    tag_114:\n        /* \"#utility.yul\":2562:2684   */\n    tag_113:\n        /* \"#utility.yul\":2710:2716   */\n      dup4\n        /* \"#utility.yul\":2693:2921   */\n    tag_115:\n        /* \"#utility.yul\":2727:2733   */\n      dup2\n        /* \"#utility.yul\":2722:2725   */\n      dup2\n        /* \"#utility.yul\":2719:2734   */\n      lt\n        /* \"#utility.yul\":2693:2921   */\n      iszero\n      tag_117\n      jumpi\n        /* \"#utility.yul\":2802:2805   */\n      dup1\n        /* \"#utility.yul\":2831:2876   */\n      tag_118\n        /* \"#utility.yul\":2872:2875   */\n      dup9\n        /* \"#utility.yul\":2860:2870   */\n      dup3\n        /* \"#utility.yul\":2831:2876   */\n      tag_70\n      jump\t// in\n    tag_118:\n        /* \"#utility.yul\":2826:2829   */\n      dup5\n        /* \"#utility.yul\":2819:2877   */\n      mstore\n        /* \"#utility.yul\":2906:2910   */\n      0x20\n        /* \"#utility.yul\":2901:2904   */\n      dup5\n        /* \"#utility.yul\":2897:2911   */\n      add\n        /* \"#utility.yul\":2890:2911   */\n      swap4\n      pop\n        /* \"#utility.yul\":2769:2921   */\n      pop\n        /* \"#utility.yul\":2753:2757   */\n      0x20\n        /* \"#utility.yul\":2748:2751   */\n      dup2\n        /* \"#utility.yul\":2744:2758   */\n      add\n        /* \"#utility.yul\":2737:2758   */\n      swap1\n      pop\n        /* \"#utility.yul\":2693:2921   */\n      jump(tag_115)\n    tag_117:\n        /* \"#utility.yul\":2697:2718   */\n      pop\n        /* \"#utility.yul\":2303:2927   */\n      pop\n      pop\n        /* \"#utility.yul\":2193:2927   */\n      swap4\n      swap3\n      pop\n      pop\n      pop\n      jump\t// out\n        /* \"#utility.yul\":2958:3344   */\n    tag_72:\n        /* \"#utility.yul\":3037:3042   */\n      0x00\n        /* \"#utility.yul\":3086:3089   */\n      dup3\n        /* \"#utility.yul\":3079:3083   */\n      0x1f\n        /* \"#utility.yul\":3071:3077   */\n      dup4\n        /* \"#utility.yul\":3067:3084   */\n      add\n        /* \"#utility.yul\":3063:3090   */\n      slt\n        /* \"#utility.yul\":3053:3175   */\n      tag_120\n      jumpi\n        /* \"#utility.yul\":3094:3173   */\n      tag_121\n      tag_60\n      jump\t// in\n    tag_121:\n        /* \"#utility.yul\":3053:3175   */\n    tag_120:\n        /* \"#utility.yul\":3211:3217   */\n      dup2\n        /* \"#utility.yul\":3198:3218   */\n      calldataload\n        /* \"#utility.yul\":3236:3338   */\n      tag_122\n        /* \"#utility.yul\":3334:3337   */\n      dup5\n        /* \"#utility.yul\":3326:3332   */\n      dup3\n        /* \"#utility.yul\":3319:3323   */\n      0x20\n        /* \"#utility.yul\":3311:3317   */\n      dup7\n        /* \"#utility.yul\":3307:3324   */\n      add\n        /* \"#utility.yul\":3236:3338   */\n      tag_71\n      jump\t// in\n    tag_122:\n        /* \"#utility.yul\":3227:3338   */\n      swap2\n      pop\n        /* \"#utility.yul\":3043:3344   */\n      pop\n        /* \"#utility.yul\":2958:3344   */\n      swap3\n      swap2\n      pop\n      pop\n      jump\t// out\n        /* \"#utility.yul\":3350:3661   */\n    tag_73:\n        /* \"#utility.yul\":3427:3431   */\n      0x00\n        /* \"#utility.yul\":3517:3535   */\n      0xffffffffffffffff\n        /* \"#utility.yul\":3509:3515   */\n      dup3\n        /* \"#utility.yul\":3506:3536   */\n      gt\n        /* \"#utility.yul\":3503:3559   */\n      iszero\n      tag_124\n      jumpi\n        /* \"#utility.yul\":3539:3557   */\n      tag_125\n      tag_62\n      jump\t// in\n    tag_125:\n        /* \"#utility.yul\":3503:3559   */\n    tag_124:\n        /* \"#utility.yul\":3589:3593   */\n      0x20\n        /* \"#utility.yul\":3581:3587   */\n      dup3\n        /* \"#utility.yul\":3577:3594   */\n      mul\n        /* \"#utility.yul\":3569:3594   */\n      swap1\n      pop\n        /* \"#utility.yul\":3649:3653   */\n      0x20\n        /* \"#utility.yul\":3643:3647   */\n      dup2\n        /* \"#utility.yul\":3639:3654   */\n      add\n        /* \"#utility.yul\":3631:3654   */\n      swap1\n      pop\n        /* \"#utility.yul\":3350:3661   */\n      swap2\n      swap1\n      pop\n      jump\t// out\n        /* \"#utility.yul\":3667:3744   */\n    tag_74:\n        /* \"#utility.yul\":3704:3711   */\n      0x00\n        /* \"#utility.yul\":3733:3738   */\n      dup2\n        /* \"#utility.yul\":3722:3738   */\n      swap1\n      pop\n        /* \"#utility.yul\":3667:3744   */\n      swap2\n      swap1\n      pop\n      jump\t// out\n        /* \"#utility.yul\":3750:3872   */\n    tag_75:\n        /* \"#utility.yul\":3823:3847   */\n      tag_128\n        /* \"#utility.yul\":3841:3846   */\n      dup2\n        /* \"#utility.yul\":3823:3847   */\n      tag_74\n      jump\t// in\n    tag_128:\n        /* \"#utility.yul\":3816:3821   */\n      dup2\n        /* \"#utility.yul\":3813:3848   */\n      eq\n        /* \"#utility.yul\":3803:3866   */\n      tag_129\n      jumpi\n        /* \"#utility.yul\":3862:3863   */\n      0x00\n        /* \"#utility.yul\":3859:3860   */\n      dup1\n        /* \"#utility.yul\":3852:3864   */\n      revert\n        /* \"#utility.yul\":3803:3866   */\n    tag_129:\n        /* \"#utility.yul\":3750:3872   */\n      pop\n      jump\t// out\n        /* \"#utility.yul\":3878:4017   */\n    tag_76:\n        /* \"#utility.yul\":3924:3929   */\n      0x00\n        /* \"#utility.yul\":3962:3968   */\n      dup2\n        /* \"#utility.yul\":3949:3969   */\n      calldataload\n        /* \"#utility.yul\":3940:3969   */\n      swap1\n      pop\n        /* \"#utility.yul\":3978:4011   */\n      tag_131\n        /* \"#utility.yul\":4005:4010   */\n      dup2\n        /* \"#utility.yul\":3978:4011   */\n      tag_75\n      jump\t// in\n    tag_131:\n        /* \"#utility.yul\":3878:4017   */\n      swap3\n      swap2\n      pop\n      pop\n      jump\t// out\n        /* \"#utility.yul\":4040:4750   */\n    tag_77:\n        /* \"#utility.yul\":4136:4141   */\n      0x00\n        /* \"#utility.yul\":4161:4242   */\n      tag_133\n        /* \"#utility.yul\":4177:4241   */\n      tag_134\n        /* \"#utility.yul\":4234:4240   */\n      dup5\n        /* \"#utility.yul\":4177:4241   */\n      tag_73\n      jump\t// in\n    tag_134:\n        /* \"#utility.yul\":4161:4242   */\n      tag_64\n      jump\t// in\n    tag_133:\n        /* \"#utility.yul\":4152:4242   */\n      swap1\n      pop\n        /* \"#utility.yul\":4262:4267   */\n      dup1\n        /* \"#utility.yul\":4291:4297   */\n      dup4\n        /* \"#utility.yul\":4284:4289   */\n      dup3\n        /* \"#utility.yul\":4277:4298   */\n      mstore\n        /* \"#utility.yul\":4325:4329   */\n      0x20\n        /* \"#utility.yul\":4318:4323   */\n      dup3\n        /* \"#utility.yul\":4314:4330   */\n      add\n        /* \"#utility.yul\":4307:4330   */\n      swap1\n      pop\n        /* \"#utility.yul\":4378:4382   */\n      0x20\n        /* \"#utility.yul\":4370:4376   */\n      dup5\n        /* \"#utility.yul\":4366:4383   */\n      mul\n        /* \"#utility.yul\":4358:4364   */\n      dup4\n        /* \"#utility.yul\":4354:4384   */\n      add\n        /* \"#utility.yul\":4407:4410   */\n      dup6\n        /* \"#utility.yul\":4399:4405   */\n      dup2\n        /* \"#utility.yul\":4396:4411   */\n      gt\n        /* \"#utility.yul\":4393:4515   */\n      iszero\n      tag_135\n      jumpi\n        /* \"#utility.yul\":4426:4505   */\n      tag_136\n      tag_66\n      jump\t// in\n    tag_136:\n        /* \"#utility.yul\":4393:4515   */\n    tag_135:\n        /* \"#utility.yul\":4541:4547   */\n      dup4\n        /* \"#utility.yul\":4524:4744   */\n    tag_137:\n        /* \"#utility.yul\":4558:4564   */\n      dup2\n        /* \"#utility.yul\":4553:4556   */\n      dup2\n        /* \"#utility.yul\":4550:4565   */\n      lt\n        /* \"#utility.yul\":4524:4744   */\n      iszero\n      tag_139\n      jumpi\n        /* \"#utility.yul\":4633:4636   */\n      dup1\n        /* \"#utility.yul\":4662:4699   */\n      tag_140\n        /* \"#utility.yul\":4695:4698   */\n      dup9\n        /* \"#utility.yul\":4683:4693   */\n      dup3\n        /* \"#utility.yul\":4662:4699   */\n      tag_76\n      jump\t// in\n    tag_140:\n        /* \"#utility.yul\":4657:4660   */\n      dup5\n        /* \"#utility.yul\":4650:4700   */\n      mstore\n        /* \"#utility.yul\":4729:4733   */\n      0x20\n        /* \"#utility.yul\":4724:4727   */\n      dup5\n        /* \"#utility.yul\":4720:4734   */\n      add\n        /* \"#utility.yul\":4713:4734   */\n      swap4\n      pop\n        /* \"#utility.yul\":4600:4744   */\n      pop\n        /* \"#utility.yul\":4584:4588   */\n      0x20\n        /* \"#utility.yul\":4579:4582   */\n      dup2\n        /* \"#utility.yul\":4575:4589   */\n      add\n        /* \"#utility.yul\":4568:4589   */\n      swap1\n      pop\n        /* \"#utility.yul\":4524:4744   */\n      jump(tag_137)\n    tag_139:\n        /* \"#utility.yul\":4528:4549   */\n      pop\n        /* \"#utility.yul\":4142:4750   */\n      pop\n      pop\n        /* \"#utility.yul\":4040:4750   */\n      swap4\n      swap3\n      pop\n      pop\n      pop\n      jump\t// out\n        /* \"#utility.yul\":4773:5143   */\n    tag_78:\n        /* \"#utility.yul\":4844:4849   */\n      0x00\n        /* \"#utility.yul\":4893:4896   */\n      dup3\n        /* \"#utility.yul\":4886:4890   */\n      0x1f\n        /* \"#utility.yul\":4878:4884   */\n      dup4\n        /* \"#utility.yul\":4874:4891   */\n      add\n        /* \"#utility.yul\":4870:4897   */\n      slt\n        /* \"#utility.yul\":4860:4982   */\n      tag_142\n      jumpi\n        /* \"#utility.yul\":4901:4980   */\n      tag_143\n      tag_60\n      jump\t// in\n    tag_143:\n        /* \"#utility.yul\":4860:4982   */\n    tag_142:\n        /* \"#utility.yul\":5018:5024   */\n      dup2\n        /* \"#utility.yul\":5005:5025   */\n      calldataload\n        /* \"#utility.yul\":5043:5137   */\n      tag_144\n        /* \"#utility.yul\":5133:5136   */\n      dup5\n        /* \"#utility.yul\":5125:5131   */\n      dup3\n        /* \"#utility.yul\":5118:5122   */\n      0x20\n        /* \"#utility.yul\":5110:5116   */\n      dup7\n        /* \"#utility.yul\":5106:5123   */\n      add\n        /* \"#utility.yul\":5043:5137   */\n      tag_77\n      jump\t// in\n    tag_144:\n        /* \"#utility.yul\":5034:5137   */\n      swap2\n      pop\n        /* \"#utility.yul\":4850:5143   */\n      pop\n        /* \"#utility.yul\":4773:5143   */\n      swap3\n      swap2\n      pop\n      pop\n      jump\t// out\n        /* \"#utility.yul\":5149:6059   */\n    tag_6:\n        /* \"#utility.yul\":5275:5281   */\n      0x00\n        /* \"#utility.yul\":5283:5289   */\n      dup1\n        /* \"#utility.yul\":5332:5334   */\n      0x40\n        /* \"#utility.yul\":5320:5329   */\n      dup4\n        /* \"#utility.yul\":5311:5318   */\n      dup6\n        /* \"#utility.yul\":5307:5330   */\n      sub\n        /* \"#utility.yul\":5303:5335   */\n      slt\n        /* \"#utility.yul\":5300:5419   */\n      iszero\n      tag_146\n      jumpi\n        /* \"#utility.yul\":5338:5417   */\n      tag_147\n      tag_58\n      jump\t// in\n    tag_147:\n        /* \"#utility.yul\":5300:5419   */\n    tag_146:\n        /* \"#utility.yul\":5486:5487   */\n      0x00\n        /* \"#utility.yul\":5475:5484   */\n      dup4\n        /* \"#utility.yul\":5471:5488   */\n      add\n        /* \"#utility.yul\":5458:5489   */\n      calldataload\n        /* \"#utility.yul\":5516:5534   */\n      0xffffffffffffffff\n        /* \"#utility.yul\":5508:5514   */\n      dup2\n        /* \"#utility.yul\":5505:5535   */\n      gt\n        /* \"#utility.yul\":5502:5619   */\n      iszero\n      tag_148\n      jumpi\n        /* \"#utility.yul\":5538:5617   */\n      tag_149\n      tag_59\n      jump\t// in\n    tag_149:\n        /* \"#utility.yul\":5502:5619   */\n    tag_148:\n        /* \"#utility.yul\":5643:5729   */\n      tag_150\n        /* \"#utility.yul\":5721:5728   */\n      dup6\n        /* \"#utility.yul\":5712:5718   */\n      dup3\n        /* \"#utility.yul\":5701:5710   */\n      dup7\n        /* \"#utility.yul\":5697:5719   */\n      add\n        /* \"#utility.yul\":5643:5729   */\n      tag_72\n      jump\t// in\n    tag_150:\n        /* \"#utility.yul\":5633:5729   */\n      swap3\n      pop\n        /* \"#utility.yul\":5429:5739   */\n      pop\n        /* \"#utility.yul\":5806:5808   */\n      0x20\n        /* \"#utility.yul\":5795:5804   */\n      dup4\n        /* \"#utility.yul\":5791:5809   */\n      add\n        /* \"#utility.yul\":5778:5810   */\n      calldataload\n        /* \"#utility.yul\":5837:5855   */\n      0xffffffffffffffff\n        /* \"#utility.yul\":5829:5835   */\n      dup2\n        /* \"#utility.yul\":5826:5856   */\n      gt\n        /* \"#utility.yul\":5823:5940   */\n      iszero\n      tag_151\n      jumpi\n        /* \"#utility.yul\":5859:5938   */\n      tag_152\n      tag_59\n      jump\t// in\n    tag_152:\n        /* \"#utility.yul\":5823:5940   */\n    tag_151:\n        /* \"#utility.yul\":5964:6042   */\n      tag_153\n        /* \"#utility.yul\":6034:6041   */\n      dup6\n        /* \"#utility.yul\":6025:6031   */\n      dup3\n        /* \"#utility.yul\":6014:6023   */\n      dup7\n        /* \"#utility.yul\":6010:6032   */\n      add\n        /* \"#utility.yul\":5964:6042   */\n      tag_78\n      jump\t// in\n    tag_153:\n        /* \"#utility.yul\":5954:6042   */\n      swap2\n      pop\n        /* \"#utility.yul\":5749:6052   */\n      pop\n        /* \"#utility.yul\":5149:6059   */\n      swap3\n      pop\n      swap3\n      swap1\n      pop\n      jump\t// out\n        /* \"#utility.yul\":6065:6394   */\n    tag_10:\n        /* \"#utility.yul\":6124:6130   */\n      0x00\n        /* \"#utility.yul\":6173:6175   */\n      0x20\n        /* \"#utility.yul\":6161:6170   */\n      dup3\n        /* \"#utility.yul\":6152:6159   */\n      dup5\n        /* \"#utility.yul\":6148:6171   */\n      sub\n        /* \"#utility.yul\":6144:6176   */\n      slt\n        /* \"#utility.yul\":6141:6260   */\n      iszero\n      tag_155\n      jumpi\n        /* \"#utility.yul\":6179:6258   */\n      tag_156\n      tag_58\n      jump\t// in\n    tag_156:\n        /* \"#utility.yul\":6141:6260   */\n    tag_155:\n        /* \"#utility.yul\":6299:6300   */\n      0x00\n        /* \"#utility.yul\":6324:6377   */\n      tag_157\n        /* \"#utility.yul\":6369:6376   */\n      dup5\n        /* \"#utility.yul\":6360:6366   */\n      dup3\n        /* \"#utility.yul\":6349:6358   */\n      dup6\n        /* \"#utility.yul\":6345:6367   */\n      add\n        /* \"#utility.yul\":6324:6377   */\n      tag_76\n      jump\t// in\n    tag_157:\n        /* \"#utility.yul\":6314:6377   */\n      swap2\n      pop\n        /* \"#utility.yul\":6270:6387   */\n      pop\n        /* \"#utility.yul\":6065:6394   */\n      swap3\n      swap2\n      pop\n      pop\n      jump\t// out\n        /* \"#utility.yul\":6400:6569   */\n    tag_79:\n        /* \"#utility.yul\":6484:6495   */\n      0x00\n        /* \"#utility.yul\":6518:6524   */\n      dup3\n        /* \"#utility.yul\":6513:6516   */\n      dup3\n        /* \"#utility.yul\":6506:6525   */\n      mstore\n        /* \"#utility.yul\":6558:6562   */\n      0x20\n        /* \"#utility.yul\":6553:6556   */\n      dup3\n        /* \"#utility.yul\":6549:6563   */\n      add\n        /* \"#utility.yul\":6534:6563   */\n      swap1\n      pop\n        /* \"#utility.yul\":6400:6569   */\n      swap3\n      swap2\n      pop\n      pop\n      jump\t// out\n        /* \"#utility.yul\":6575:6812   */\n    tag_80:\n        /* \"#utility.yul\":6715:6749   */\n      0x4d7573742070726f766964652073616d65206e756d626572206f662061646472\n        /* \"#utility.yul\":6711:6712   */\n      0x00\n        /* \"#utility.yul\":6703:6709   */\n      dup3\n        /* \"#utility.yul\":6699:6713   */\n      add\n        /* \"#utility.yul\":6692:6750   */\n      mstore\n        /* \"#utility.yul\":6784:6804   */\n      0x657373657320616e6420616d6f756e74732e0000000000000000000000000000\n        /* \"#utility.yul\":6779:6781   */\n      0x20\n        /* \"#utility.yul\":6771:6777   */\n      dup3\n        /* \"#utility.yul\":6767:6782   */\n      add\n        /* \"#utility.yul\":6760:6805   */\n      mstore\n        /* \"#utility.yul\":6575:6812   */\n      pop\n      jump\t// out\n        /* \"#utility.yul\":6818:7184   */\n    tag_81:\n        /* \"#utility.yul\":6960:6963   */\n      0x00\n        /* \"#utility.yul\":6981:7048   */\n      tag_161\n        /* \"#utility.yul\":7045:7047   */\n      0x32\n        /* \"#utility.yul\":7040:7043   */\n      dup4\n        /* \"#utility.yul\":6981:7048   */\n      tag_79\n      jump\t// in\n    tag_161:\n        /* \"#utility.yul\":6974:7048   */\n      swap2\n      pop\n        /* \"#utility.yul\":7057:7150   */\n      tag_162\n        /* \"#utility.yul\":7146:7149   */\n      dup3\n        /* \"#utility.yul\":7057:7150   */\n      tag_80\n      jump\t// in\n    tag_162:\n        /* \"#utility.yul\":7175:7177   */\n      0x40\n        /* \"#utility.yul\":7170:7173   */\n      dup3\n        /* \"#utility.yul\":7166:7178   */\n      add\n        /* \"#utility.yul\":7159:7178   */\n      swap1\n      pop\n        /* \"#utility.yul\":6818:7184   */\n      swap2\n      swap1\n      pop\n      jump\t// out\n        /* \"#utility.yul\":7190:7609   */\n    tag_15:\n        /* \"#utility.yul\":7356:7360   */\n      0x00\n        /* \"#utility.yul\":7394:7396   */\n      0x20\n        /* \"#utility.yul\":7383:7392   */\n      dup3\n        /* \"#utility.yul\":7379:7397   */\n      add\n        /* \"#utility.yul\":7371:7397   */\n      swap1\n      pop\n        /* \"#utility.yul\":7443:7452   */\n      dup2\n        /* \"#utility.yul\":7437:7441   */\n      dup2\n        /* \"#utility.yul\":7433:7453   */\n      sub\n        /* \"#utility.yul\":7429:7430   */\n      0x00\n        /* \"#utility.yul\":7418:7427   */\n      dup4\n        /* \"#utility.yul\":7414:7431   */\n      add\n        /* \"#utility.yul\":7407:7454   */\n      mstore\n        /* \"#utility.yul\":7471:7602   */\n      tag_164\n        /* \"#utility.yul\":7597:7601   */\n      dup2\n        /* \"#utility.yul\":7471:7602   */\n      tag_81\n      jump\t// in\n    tag_164:\n        /* \"#utility.yul\":7463:7602   */\n      swap1\n      pop\n        /* \"#utility.yul\":7190:7609   */\n      swap2\n      swap1\n      pop\n      jump\t// out\n        /* \"#utility.yul\":7615:7733   */\n    tag_82:\n        /* \"#utility.yul\":7702:7726   */\n      tag_166\n        /* \"#utility.yul\":7720:7725   */\n      dup2\n        /* \"#utility.yul\":7702:7726   */\n      tag_74\n      jump\t// in\n    tag_166:\n        /* \"#utility.yul\":7697:7700   */\n      dup3\n        /* \"#utility.yul\":7690:7727   */\n      mstore\n        /* \"#utility.yul\":7615:7733   */\n      pop\n      pop\n      jump\t// out\n        /* \"#utility.yul\":7739:8071   */\n    tag_20:\n        /* \"#utility.yul\":7860:7864   */\n      0x00\n        /* \"#utility.yul\":7898:7900   */\n      0x40\n        /* \"#utility.yul\":7887:7896   */\n      dup3\n        /* \"#utility.yul\":7883:7901   */\n      add\n        /* \"#utility.yul\":7875:7901   */\n      swap1\n      pop\n        /* \"#utility.yul\":7911:7982   */\n      tag_168\n        /* \"#utility.yul\":7979:7980   */\n      0x00\n        /* \"#utility.yul\":7968:7977   */\n      dup4\n        /* \"#utility.yul\":7964:7981   */\n      add\n        /* \"#utility.yul\":7955:7961   */\n      dup6\n        /* \"#utility.yul\":7911:7982   */\n      tag_82\n      jump\t// in\n    tag_168:\n        /* \"#utility.yul\":7992:8064   */\n      tag_169\n        /* \"#utility.yul\":8060:8062   */\n      0x20\n        /* \"#utility.yul\":8049:8058   */\n      dup4\n        /* \"#utility.yul\":8045:8063   */\n      add\n        /* \"#utility.yul\":8036:8042   */\n      dup5\n        /* \"#utility.yul\":7992:8064   */\n      tag_82\n      jump\t// in\n    tag_169:\n        /* \"#utility.yul\":7739:8071   */\n      swap4\n      swap3\n      pop\n      pop\n      pop\n      jump\t// out\n        /* \"#utility.yul\":8077:8257   */\n    tag_26:\n        /* \"#utility.yul\":8125:8202   */\n      0x4e487b7100000000000000000000000000000000000000000000000000000000\n        /* \"#utility.yul\":8122:8123   */\n      0x00\n        /* \"#utility.yul\":8115:8203   */\n      mstore\n        /* \"#utility.yul\":8222:8226   */\n      0x32\n        /* \"#utility.yul\":8219:8220   */\n      0x04\n        /* \"#utility.yul\":8212:8227   */\n      mstore\n        /* \"#utility.yul\":8246:8250   */\n      0x24\n        /* \"#utility.yul\":8243:8244   */\n      0x00\n        /* \"#utility.yul\":8236:8251   */\n      revert\n        /* \"#utility.yul\":8263:8443   */\n    tag_83:\n        /* \"#utility.yul\":8311:8388   */\n      0x4e487b7100000000000000000000000000000000000000000000000000000000\n        /* \"#utility.yul\":8308:8309   */\n      0x00\n        /* \"#utility.yul\":8301:8389   */\n      mstore\n        /* \"#utility.yul\":8408:8412   */\n      0x11\n        /* \"#utility.yul\":8405:8406   */\n      0x04\n        /* \"#utility.yul\":8398:8413   */\n      mstore\n        /* \"#utility.yul\":8432:8436   */\n      0x24\n        /* \"#utility.yul\":8429:8430   */\n      0x00\n        /* \"#utility.yul\":8422:8437   */\n      revert\n        /* \"#utility.yul\":8449:8640   */\n    tag_28:\n        /* \"#utility.yul\":8489:8493   */\n      0x00\n        /* \"#utility.yul\":8509:8529   */\n      tag_173\n        /* \"#utility.yul\":8527:8528   */\n      dup3\n        /* \"#utility.yul\":8509:8529   */\n      tag_74\n      jump\t// in\n    tag_173:\n        /* \"#utility.yul\":8504:8529   */\n      swap2\n      pop\n        /* \"#utility.yul\":8543:8563   */\n      tag_174\n        /* \"#utility.yul\":8561:8562   */\n      dup4\n        /* \"#utility.yul\":8543:8563   */\n      tag_74\n      jump\t// in\n    tag_174:\n        /* \"#utility.yul\":8538:8563   */\n      swap3\n      pop\n        /* \"#utility.yul\":8582:8583   */\n      dup3\n        /* \"#utility.yul\":8579:8580   */\n      dup3\n        /* \"#utility.yul\":8576:8584   */\n      lt\n        /* \"#utility.yul\":8573:8607   */\n      iszero\n      tag_175\n      jumpi\n        /* \"#utility.yul\":8587:8605   */\n      tag_176\n      tag_83\n      jump\t// in\n    tag_176:\n        /* \"#utility.yul\":8573:8607   */\n    tag_175:\n        /* \"#utility.yul\":8632:8633   */\n      dup3\n        /* \"#utility.yul\":8629:8630   */\n      dup3\n        /* \"#utility.yul\":8625:8634   */\n      sub\n        /* \"#utility.yul\":8617:8634   */\n      swap1\n      pop\n        /* \"#utility.yul\":8449:8640   */\n      swap3\n      swap2\n      pop\n      pop\n      jump\t// out\n        /* \"#utility.yul\":8646:8868   */\n    tag_40:\n        /* \"#utility.yul\":8739:8743   */\n      0x00\n        /* \"#utility.yul\":8777:8779   */\n      0x20\n        /* \"#utility.yul\":8766:8775   */\n      dup3\n        /* \"#utility.yul\":8762:8780   */\n      add\n        /* \"#utility.yul\":8754:8780   */\n      swap1\n      pop\n        /* \"#utility.yul\":8790:8861   */\n      tag_178\n        /* \"#utility.yul\":8858:8859   */\n      0x00\n        /* \"#utility.yul\":8847:8856   */\n      dup4\n        /* \"#utility.yul\":8843:8860   */\n      add\n        /* \"#utility.yul\":8834:8840   */\n      dup5\n        /* \"#utility.yul\":8790:8861   */\n      tag_82\n      jump\t// in\n    tag_178:\n        /* \"#utility.yul\":8646:8868   */\n      swap3\n      swap2\n      pop\n      pop\n      jump\t// out\n        /* \"#utility.yul\":8874:9107   */\n    tag_42:\n        /* \"#utility.yul\":8913:8916   */\n      0x00\n        /* \"#utility.yul\":8936:8960   */\n      tag_180\n        /* \"#utility.yul\":8954:8959   */\n      dup3\n        /* \"#utility.yul\":8936:8960   */\n      tag_74\n      jump\t// in\n    tag_180:\n        /* \"#utility.yul\":8927:8960   */\n      swap2\n      pop\n        /* \"#utility.yul\":8982:9048   */\n      0xffffffffffffffffffffffffffffffffffffffffffffffffffffffffffffffff\n        /* \"#utility.yul\":8975:8980   */\n      dup3\n        /* \"#utility.yul\":8972:9049   */\n      eq\n        /* \"#utility.yul\":8969:9072   */\n      iszero\n      tag_181\n      jumpi\n        /* \"#utility.yul\":9052:9070   */\n      tag_182\n      tag_83\n      jump\t// in\n    tag_182:\n        /* \"#utility.yul\":8969:9072   */\n    tag_181:\n        /* \"#utility.yul\":9099:9100   */\n      0x01\n        /* \"#utility.yul\":9092:9097   */\n      dup3\n        /* \"#utility.yul\":9088:9101   */\n      add\n        /* \"#utility.yul\":9081:9101   */\n      swap1\n      pop\n        /* \"#utility.yul\":8874:9107   */\n      swap2\n      swap1\n      pop\n      jump\t// out\n        /* \"#utility.yul\":9113:9418   */\n    tag_45:\n        /* \"#utility.yul\":9153:9156   */\n      0x00\n        /* \"#utility.yul\":9172:9192   */\n      tag_184\n        /* \"#utility.yul\":9190:9191   */\n      dup3\n        /* \"#utility.yul\":9172:9192   */\n      tag_74\n      jump\t// in\n    tag_184:\n        /* \"#utility.yul\":9167:9192   */\n      swap2\n      pop\n        /* \"#utility.yul\":9206:9226   */\n      tag_185\n        /* \"#utility.yul\":9224:9225   */\n      dup4\n        /* \"#utility.yul\":9206:9226   */\n      tag_74\n      jump\t// in\n    tag_185:\n        /* \"#utility.yul\":9201:9226   */\n      swap3\n      pop\n        /* \"#utility.yul\":9360:9361   */\n      dup3\n        /* \"#utility.yul\":9292:9358   */\n      0xffffffffffffffffffffffffffffffffffffffffffffffffffffffffffffffff\n        /* \"#utility.yul\":9288:9362   */\n      sub\n        /* \"#utility.yul\":9285:9286   */\n      dup3\n        /* \"#utility.yul\":9282:9363   */\n      gt\n        /* \"#utility.yul\":9279:9386   */\n      iszero\n      tag_186\n      jumpi\n        /* \"#utility.yul\":9366:9384   */\n      tag_187\n      tag_83\n      jump\t// in\n    tag_187:\n        /* \"#utility.yul\":9279:9386   */\n    tag_186:\n        /* \"#utility.yul\":9410:9411   */\n      dup3\n        /* \"#utility.yul\":9407:9408   */\n      dup3\n        /* \"#utility.yul\":9403:9412   */\n      add\n        /* \"#utility.yul\":9396:9412   */\n      swap1\n      pop\n        /* \"#utility.yul\":9113:9418   */\n      swap3\n      swap2\n      pop\n      pop\n      jump\t// out\n\n    auxdata: 0xa2646970667358221220610034595166ee3e22d2d57410c6a93d8337a4985c86fd4c85050ed8226854a764736f6c63430008090033\n}\n","bytecode":{"linkReferences":{},"object":"6080604052346000819055506108b48061001a6000396000f3fe6080604052600436106100295760003560e01c80637156d6721461002e578063b6b55f251461004a575b600080fd5b610048600480360381019061004391906105b2565b610066565b005b610064600480360381019061005f919061062a565b610230565b005b80518251146100aa576040517f08c379a00000000000000000000000000000000000000000000000000000000081526004016100a1906106da565b60405180910390fd5b60006100b58261024b565b905080600054101561010257806000546040517fcf4791810000000000000000000000000000000000000000000000000000000081526004016100f9929190610709565b60405180910390fd5b60005b835181101561022a5782818151811061012157610120610732565b5b60200260200101516000808282546101399190610790565b9250508190555061017e84828151811061015657610155610732565b5b602002602001015184838151811061017157610170610732565b5b60200260200101516102a3565b83818151811061019157610190610732565b5b602002602001015173ffffffffffffffffffffffffffffffffffffffff163073ffffffffffffffffffffffffffffffffffffffff167fddf252ad1be2c89b69c2b068fc378daa952ba7f163c4a11628f55a4df523b3ef8584815181106101fa576101f9610732565b5b602002602001015160405161020f91906107c4565b60405180910390a38080610222906107df565b915050610105565b50505050565b346000808282546102419190610828565b9250508190555050565b6000806000905060005b83518110156102995783818151811061027157610270610732565b5b6020026020010151826102849190610828565b91508080610291906107df565b915050610255565b5080915050919050565b8173ffffffffffffffffffffffffffffffffffffffff166108fc829081150290604051600060405180830381858888f193505050501580156102e9573d6000803e3d6000fd5b505050565b6000604051905090565b600080fd5b600080fd5b600080fd5b6000601f19601f8301169050919050565b7f4e487b7100000000000000000000000000000000000000000000000000000000600052604160045260246000fd5b61035082610307565b810181811067ffffffffffffffff8211171561036f5761036e610318565b5b80604052505050565b60006103826102ee565b905061038e8282610347565b919050565b600067ffffffffffffffff8211156103ae576103ad610318565b5b602082029050602081019050919050565b600080fd5b600073ffffffffffffffffffffffffffffffffffffffff82169050919050565b60006103ef826103c4565b9050919050565b6103ff816103e4565b811461040a57600080fd5b50565b60008135905061041c816103f6565b92915050565b600061043561043084610393565b610378565b90508083825260208201905060208402830185811115610458576104576103bf565b5b835b81811015610481578061046d888261040d565b84526020840193505060208101905061045a565b5050509392505050565b600082601f8301126104a05761049f610302565b5b81356104b0848260208601610422565b91505092915050565b600067ffffffffffffffff8211156104d4576104d3610318565b5b602082029050602081019050919050565b6000819050919050565b6104f8816104e5565b811461050357600080fd5b50565b600081359050610515816104ef565b92915050565b600061052e610529846104b9565b610378565b90508083825260208201905060208402830185811115610551576105506103bf565b5b835b8181101561057a57806105668882610506565b845260208401935050602081019050610553565b5050509392505050565b600082601f83011261059957610598610302565b5b81356105a984826020860161051b565b91505092915050565b600080604083850312156105c9576105c86102f8565b5b600083013567ffffffffffffffff8111156105e7576105e66102fd565b5b6105f38582860161048b565b925050602083013567ffffffffffffffff811115610614576106136102fd565b5b61062085828601610584565b9150509250929050565b6000602082840312156106405761063f6102f8565b5b600061064e84828501610506565b91505092915050565b600082825260208201905092915050565b7f4d7573742070726f766964652073616d65206e756d626572206f66206164647260008201527f657373657320616e6420616d6f756e74732e0000000000000000000000000000602082015250565b60006106c4603283610657565b91506106cf82610668565b604082019050919050565b600060208201905081810360008301526106f3816106b7565b9050919050565b610703816104e5565b82525050565b600060408201905061071e60008301856106fa565b61072b60208301846106fa565b9392505050565b7f4e487b7100000000000000000000000000000000000000000000000000000000600052603260045260246000fd5b7f4e487b7100000000000000000000000000000000000000000000000000000000600052601160045260246000fd5b600061079b826104e5565b91506107a6836104e5565b9250828210156107b9576107b8610761565b5b828203905092915050565b60006020820190506107d960008301846106fa565b92915050565b60006107ea826104e5565b91507fffffffffffffffffffffffffffffffffffffffffffffffffffffffffffffffff82141561081d5761081c610761565b5b600182019050919050565b6000610833826104e5565b915061083e836104e5565b9250827fffffffffffffffffffffffffffffffffffffffffffffffffffffffffffffffff0382111561087357610872610761565b5b82820190509291505056fea2646970667358221220610034595166ee3e22d2d57410c6a93d8337a4985c86fd4c85050ed8226854a764736f6c63430008090033","opcodes":"PUSH1 0x80 PUSH1 0x40 MSTORE CALLVALUE PUSH1 0x0 DUP2 SWAP1 SSTORE POP PUSH2 0x8B4 DUP1 PUSH2 0x1A PUSH1 0x0 CODECOPY PUSH1 0x0 RETURN INVALID PUSH1 0x80 PUSH1 0x40 MSTORE PUSH1 0x4 CALLDATASIZE LT PUSH2 0x29 JUMPI PUSH1 0x0 CALLDATALOAD PUSH1 0xE0 SHR DUP1 PUSH4 0x7156D672 EQ PUSH2 0x2E JUMPI DUP1 PUSH4 0xB6B55F25 EQ PUSH2 0x4A JUMPI JUMPDEST PUSH1 0x0 DUP1 REVERT JUMPDEST PUSH2 0x48 PUSH1 0x4 DUP1 CALLDATASIZE SUB DUP2 ADD SWAP1 PUSH2 0x43 SWAP2 SWAP1 PUSH2 0x5B2 JUMP JUMPDEST PUSH2 0x66 JUMP JUMPDEST STOP JUMPDEST PUSH2 0x64 PUSH1 0x4 DUP1 CALLDATASIZE SUB DUP2 ADD SWAP1 PUSH2 0x5F SWAP2 SWAP1 PUSH2 0x62A JUMP JUMPDEST PUSH2 0x230 JUMP JUMPDEST STOP JUMPDEST DUP1 MLOAD DUP3 MLOAD EQ PUSH2 0xAA JUMPI PUSH1 0x40 MLOAD PUSH32 0x8C379A000000000000000000000000000000000000000000000000000000000 DUP2 MSTORE PUSH1 0x4 ADD PUSH2 0xA1 SWAP1 PUSH2 0x6DA JUMP JUMPDEST PUSH1 0x40 MLOAD DUP1 SWAP2 SUB SWAP1 REVERT JUMPDEST PUSH1 0x0 PUSH2 0xB5 DUP3 PUSH2 0x24B JUMP JUMPDEST SWAP1 POP DUP1 PUSH1 0x0 SLOAD LT ISZERO PUSH2 0x102 JUMPI DUP1 PUSH1 0x0 SLOAD PUSH1 0x40 MLOAD PUSH32 0xCF47918100000000000000000000000000000000000000000000000000000000 DUP2 MSTORE PUSH1 0x4 ADD PUSH2 0xF9 SWAP3 SWAP2 SWAP1 PUSH2 0x709 JUMP JUMPDEST PUSH1 0x40 MLOAD DUP1 SWAP2 SUB SWAP1 REVERT JUMPDEST PUSH1 0x0 JUMPDEST DUP4 MLOAD DUP2 LT ISZERO PUSH2 0x22A JUMPI DUP3 DUP2 DUP2 MLOAD DUP2 LT PUSH2 0x121 JUMPI PUSH2 0x120 PUSH2 0x732 JUMP JUMPDEST JUMPDEST PUSH1 0x20 MUL PUSH1 0x20 ADD ADD MLOAD PUSH1 0x0 DUP1 DUP3 DUP3 SLOAD PUSH2 0x139 SWAP2 SWAP1 PUSH2 0x790 JUMP JUMPDEST SWAP3 POP POP DUP2 SWAP1 SSTORE POP PUSH2 0x17E DUP5 DUP3 DUP2 MLOAD DUP2 LT PUSH2 0x156 JUMPI PUSH2 0x155 PUSH2 0x732 JUMP JUMPDEST JUMPDEST PUSH1 0x20 MUL PUSH1 0x20 ADD ADD MLOAD DUP5 DUP4 DUP2 MLOAD DUP2 LT PUSH2 0x171 JUMPI PUSH2 0x170 PUSH2 0x732 JUMP JUMPDEST JUMPDEST PUSH1 0x20 MUL PUSH1 0x20 ADD ADD MLOAD PUSH2 0x2A3 JUMP JUMPDEST DUP4 DUP2 DUP2 MLOAD DUP2 LT PUSH2 0x191 JUMPI PUSH2 0x190 PUSH2 0x732 JUMP JUMPDEST JUMPDEST PUSH1 0x20 MUL PUSH1 0x20 ADD ADD MLOAD PUSH20 0xFFFFFFFFFFFFFFFFFFFFFFFFFFFFFFFFFFFFFFFF AND ADDRESS PUSH20 0xFFFFFFFFFFFFFFFFFFFFFFFFFFFFFFFFFFFFFFFF AND PUSH32 0xDDF252AD1BE2C89B69C2B068FC378DAA952BA7F163C4A11628F55A4DF523B3EF DUP6 DUP5 DUP2 MLOAD DUP2 LT PUSH2 0x1FA JUMPI PUSH2 0x1F9 PUSH2 0x732 JUMP JUMPDEST JUMPDEST PUSH1 0x20 MUL PUSH1 0x20 ADD ADD MLOAD PUSH1 0x40 MLOAD PUSH2 0x20F SWAP2 SWAP1 PUSH2 0x7C4 JUMP JUMPDEST PUSH1 0x40 MLOAD DUP1 SWAP2 SUB SWAP1 LOG3 DUP1 DUP1 PUSH2 0x222 SWAP1 PUSH2 0x7DF JUMP JUMPDEST SWAP2 POP POP PUSH2 0x105 JUMP JUMPDEST POP POP POP POP JUMP JUMPDEST CALLVALUE PUSH1 0x0 DUP1 DUP3 DUP3 SLOAD PUSH2 0x241 SWAP2 SWAP1 PUSH2 0x828 JUMP JUMPDEST SWAP3 POP POP DUP2 SWAP1 SSTORE POP POP JUMP JUMPDEST PUSH1 0x0 DUP1 PUSH1 0x0 SWAP1 POP PUSH1 0x0 JUMPDEST DUP4 MLOAD DUP2 LT ISZERO PUSH2 0x299 JUMPI DUP4 DUP2 DUP2 MLOAD DUP2 LT PUSH2 0x271 JUMPI PUSH2 0x270 PUSH2 0x732 JUMP JUMPDEST JUMPDEST PUSH1 0x20 MUL PUSH1 0x20 ADD ADD MLOAD DUP3 PUSH2 0x284 SWAP2 SWAP1 PUSH2 0x828 JUMP JUMPDEST SWAP2 POP DUP1 DUP1 PUSH2 0x291 SWAP1 PUSH2 0x7DF JUMP JUMPDEST SWAP2 POP POP PUSH2 0x255 JUMP JUMPDEST POP DUP1 SWAP2 POP POP SWAP2 SWAP1 POP JUMP JUMPDEST DUP2 PUSH20 0xFFFFFFFFFFFFFFFFFFFFFFFFFFFFFFFFFFFFFFFF AND PUSH2 0x8FC DUP3 SWAP1 DUP2 ISZERO MUL SWAP1 PUSH1 0x40 MLOAD PUSH1 0x0 PUSH1 0x40 MLOAD DUP1 DUP4 SUB DUP2 DUP6 DUP9 DUP9 CALL SWAP4 POP POP POP POP ISZERO DUP1 ISZERO PUSH2 0x2E9 JUMPI RETURNDATASIZE PUSH1 0x0 DUP1 RETURNDATACOPY RETURNDATASIZE PUSH1 0x0 REVERT JUMPDEST POP POP POP JUMP JUMPDEST PUSH1 0x0 PUSH1 0x40 MLOAD SWAP1 POP SWAP1 JUMP JUMPDEST PUSH1 0x0 DUP1 REVERT JUMPDEST PUSH1 0x0 DUP1 REVERT JUMPDEST PUSH1 0x0 DUP1 REVERT JUMPDEST PUSH1 0x0 PUSH1 0x1F NOT PUSH1 0x1F DUP4 ADD AND SWAP1 POP SWAP2 SWAP1 POP JUMP JUMPDEST PUSH32 0x4E487B7100000000000000000000000000000000000000000000000000000000 PUSH1 0x0 MSTORE PUSH1 0x41 PUSH1 0x4 MSTORE PUSH1 0x24 PUSH1 0x0 REVERT JUMPDEST PUSH2 0x350 DUP3 PUSH2 0x307 JUMP JUMPDEST DUP2 ADD DUP2 DUP2 LT PUSH8 0xFFFFFFFFFFFFFFFF DUP3 GT OR ISZERO PUSH2 0x36F JUMPI PUSH2 0x36E PUSH2 0x318 JUMP JUMPDEST JUMPDEST DUP1 PUSH1 0x40 MSTORE POP POP POP JUMP JUMPDEST PUSH1 0x0 PUSH2 0x382 PUSH2 0x2EE JUMP JUMPDEST SWAP1 POP PUSH2 0x38E DUP3 DUP3 PUSH2 0x347 JUMP JUMPDEST SWAP2 SWAP1 POP JUMP JUMPDEST PUSH1 0x0 PUSH8 0xFFFFFFFFFFFFFFFF DUP3 GT ISZERO PUSH2 0x3AE JUMPI PUSH2 0x3AD PUSH2 0x318 JUMP JUMPDEST JUMPDEST PUSH1 0x20 DUP3 MUL SWAP1 POP PUSH1 0x20 DUP2 ADD SWAP1 POP SWAP2 SWAP1 POP JUMP JUMPDEST PUSH1 0x0 DUP1 REVERT JUMPDEST PUSH1 0x0 PUSH20 0xFFFFFFFFFFFFFFFFFFFFFFFFFFFFFFFFFFFFFFFF DUP3 AND SWAP1 POP SWAP2 SWAP1 POP JUMP JUMPDEST PUSH1 0x0 PUSH2 0x3EF DUP3 PUSH2 0x3C4 JUMP JUMPDEST SWAP1 POP SWAP2 SWAP1 POP JUMP JUMPDEST PUSH2 0x3FF DUP2 PUSH2 0x3E4 JUMP JUMPDEST DUP2 EQ PUSH2 0x40A JUMPI PUSH1 0x0 DUP1 REVERT JUMPDEST POP JUMP JUMPDEST PUSH1 0x0 DUP2 CALLDATALOAD SWAP1 POP PUSH2 0x41C DUP2 PUSH2 0x3F6 JUMP JUMPDEST SWAP3 SWAP2 POP POP JUMP JUMPDEST PUSH1 0x0 PUSH2 0x435 PUSH2 0x430 DUP5 PUSH2 0x393 JUMP JUMPDEST PUSH2 0x378 JUMP JUMPDEST SWAP1 POP DUP1 DUP4 DUP3 MSTORE PUSH1 0x20 DUP3 ADD SWAP1 POP PUSH1 0x20 DUP5 MUL DUP4 ADD DUP6 DUP2 GT ISZERO PUSH2 0x458 JUMPI PUSH2 0x457 PUSH2 0x3BF JUMP JUMPDEST JUMPDEST DUP4 JUMPDEST DUP2 DUP2 LT ISZERO PUSH2 0x481 JUMPI DUP1 PUSH2 0x46D DUP9 DUP3 PUSH2 0x40D JUMP JUMPDEST DUP5 MSTORE PUSH1 0x20 DUP5 ADD SWAP4 POP POP PUSH1 0x20 DUP2 ADD SWAP1 POP PUSH2 0x45A JUMP JUMPDEST POP POP POP SWAP4 SWAP3 POP POP POP JUMP JUMPDEST PUSH1 0x0 DUP3 PUSH1 0x1F DUP4 ADD SLT PUSH2 0x4A0 JUMPI PUSH2 0x49F PUSH2 0x302 JUMP JUMPDEST JUMPDEST DUP2 CALLDATALOAD PUSH2 0x4B0 DUP5 DUP3 PUSH1 0x20 DUP7 ADD PUSH2 0x422 JUMP JUMPDEST SWAP2 POP POP SWAP3 SWAP2 POP POP JUMP JUMPDEST PUSH1 0x0 PUSH8 0xFFFFFFFFFFFFFFFF DUP3 GT ISZERO PUSH2 0x4D4 JUMPI PUSH2 0x4D3 PUSH2 0x318 JUMP JUMPDEST JUMPDEST PUSH1 0x20 DUP3 MUL SWAP1 POP PUSH1 0x20 DUP2 ADD SWAP1 POP SWAP2 SWAP1 POP JUMP JUMPDEST PUSH1 0x0 DUP2 SWAP1 POP SWAP2 SWAP1 POP JUMP JUMPDEST PUSH2 0x4F8 DUP2 PUSH2 0x4E5 JUMP JUMPDEST DUP2 EQ PUSH2 0x503 JUMPI PUSH1 0x0 DUP1 REVERT JUMPDEST POP JUMP JUMPDEST PUSH1 0x0 DUP2 CALLDATALOAD SWAP1 POP PUSH2 0x515 DUP2 PUSH2 0x4EF JUMP JUMPDEST SWAP3 SWAP2 POP POP JUMP JUMPDEST PUSH1 0x0 PUSH2 0x52E PUSH2 0x529 DUP5 PUSH2 0x4B9 JUMP JUMPDEST PUSH2 0x378 JUMP JUMPDEST SWAP1 POP DUP1 DUP4 DUP3 MSTORE PUSH1 0x20 DUP3 ADD SWAP1 POP PUSH1 0x20 DUP5 MUL DUP4 ADD DUP6 DUP2 GT ISZERO PUSH2 0x551 JUMPI PUSH2 0x550 PUSH2 0x3BF JUMP JUMPDEST JUMPDEST DUP4 JUMPDEST DUP2 DUP2 LT ISZERO PUSH2 0x57A JUMPI DUP1 PUSH2 0x566 DUP9 DUP3 PUSH2 0x506 JUMP JUMPDEST DUP5 MSTORE PUSH1 0x20 DUP5 ADD SWAP4 POP POP PUSH1 0x20 DUP2 ADD SWAP1 POP PUSH2 0x553 JUMP JUMPDEST POP POP POP SWAP4 SWAP3 POP POP POP JUMP JUMPDEST PUSH1 0x0 DUP3 PUSH1 0x1F DUP4 ADD SLT PUSH2 0x599 JUMPI PUSH2 0x598 PUSH2 0x302 JUMP JUMPDEST JUMPDEST DUP2 CALLDATALOAD PUSH2 0x5A9 DUP5 DUP3 PUSH1 0x20 DUP7 ADD PUSH2 0x51B JUMP JUMPDEST SWAP2 POP POP SWAP3 SWAP2 POP POP JUMP JUMPDEST PUSH1 0x0 DUP1 PUSH1 0x40 DUP4 DUP6 SUB SLT ISZERO PUSH2 0x5C9 JUMPI PUSH2 0x5C8 PUSH2 0x2F8 JUMP JUMPDEST JUMPDEST PUSH1 0x0 DUP4 ADD CALLDATALOAD PUSH8 0xFFFFFFFFFFFFFFFF DUP2 GT ISZERO PUSH2 0x5E7 JUMPI PUSH2 0x5E6 PUSH2 0x2FD JUMP JUMPDEST JUMPDEST PUSH2 0x5F3 DUP6 DUP3 DUP7 ADD PUSH2 0x48B JUMP JUMPDEST SWAP3 POP POP PUSH1 0x20 DUP4 ADD CALLDATALOAD PUSH8 0xFFFFFFFFFFFFFFFF DUP2 GT ISZERO PUSH2 0x614 JUMPI PUSH2 0x613 PUSH2 0x2FD JUMP JUMPDEST JUMPDEST PUSH2 0x620 DUP6 DUP3 DUP7 ADD PUSH2 0x584 JUMP JUMPDEST SWAP2 POP POP SWAP3 POP SWAP3 SWAP1 POP JUMP JUMPDEST PUSH1 0x0 PUSH1 0x20 DUP3 DUP5 SUB SLT ISZERO PUSH2 0x640 JUMPI PUSH2 0x63F PUSH2 0x2F8 JUMP JUMPDEST JUMPDEST PUSH1 0x0 PUSH2 0x64E DUP5 DUP3 DUP6 ADD PUSH2 0x506 JUMP JUMPDEST SWAP2 POP POP SWAP3 SWAP2 POP POP JUMP JUMPDEST PUSH1 0x0 DUP3 DUP3 MSTORE PUSH1 0x20 DUP3 ADD SWAP1 POP SWAP3 SWAP2 POP POP JUMP JUMPDEST PUSH32 0x4D7573742070726F766964652073616D65206E756D626572206F662061646472 PUSH1 0x0 DUP3 ADD MSTORE PUSH32 0x657373657320616E6420616D6F756E74732E0000000000000000000000000000 PUSH1 0x20 DUP3 ADD MSTORE POP JUMP JUMPDEST PUSH1 0x0 PUSH2 0x6C4 PUSH1 0x32 DUP4 PUSH2 0x657 JUMP JUMPDEST SWAP2 POP PUSH2 0x6CF DUP3 PUSH2 0x668 JUMP JUMPDEST PUSH1 0x40 DUP3 ADD SWAP1 POP SWAP2 SWAP1 POP JUMP JUMPDEST PUSH1 0x0 PUSH1 0x20 DUP3 ADD SWAP1 POP DUP2 DUP2 SUB PUSH1 0x0 DUP4 ADD MSTORE PUSH2 0x6F3 DUP2 PUSH2 0x6B7 JUMP JUMPDEST SWAP1 POP SWAP2 SWAP1 POP JUMP JUMPDEST PUSH2 0x703 DUP2 PUSH2 0x4E5 JUMP JUMPDEST DUP3 MSTORE POP POP JUMP JUMPDEST PUSH1 0x0 PUSH1 0x40 DUP3 ADD SWAP1 POP PUSH2 0x71E PUSH1 0x0 DUP4 ADD DUP6 PUSH2 0x6FA JUMP JUMPDEST PUSH2 0x72B PUSH1 0x20 DUP4 ADD DUP5 PUSH2 0x6FA JUMP JUMPDEST SWAP4 SWAP3 POP POP POP JUMP JUMPDEST PUSH32 0x4E487B7100000000000000000000000000000000000000000000000000000000 PUSH1 0x0 MSTORE PUSH1 0x32 PUSH1 0x4 MSTORE PUSH1 0x24 PUSH1 0x0 REVERT JUMPDEST PUSH32 0x4E487B7100000000000000000000000000000000000000000000000000000000 PUSH1 0x0 MSTORE PUSH1 0x11 PUSH1 0x4 MSTORE PUSH1 0x24 PUSH1 0x0 REVERT JUMPDEST PUSH1 0x0 PUSH2 0x79B DUP3 PUSH2 0x4E5 JUMP JUMPDEST SWAP2 POP PUSH2 0x7A6 DUP4 PUSH2 0x4E5 JUMP JUMPDEST SWAP3 POP DUP3 DUP3 LT ISZERO PUSH2 0x7B9 JUMPI PUSH2 0x7B8 PUSH2 0x761 JUMP JUMPDEST JUMPDEST DUP3 DUP3 SUB SWAP1 POP SWAP3 SWAP2 POP POP JUMP JUMPDEST PUSH1 0x0 PUSH1 0x20 DUP3 ADD SWAP1 POP PUSH2 0x7D9 PUSH1 0x0 DUP4 ADD DUP5 PUSH2 0x6FA JUMP JUMPDEST SWAP3 SWAP2 POP POP JUMP JUMPDEST PUSH1 0x0 PUSH2 0x7EA DUP3 PUSH2 0x4E5 JUMP JUMPDEST SWAP2 POP PUSH32 0xFFFFFFFFFFFFFFFFFFFFFFFFFFFFFFFFFFFFFFFFFFFFFFFFFFFFFFFFFFFFFFFF DUP3 EQ ISZERO PUSH2 0x81D JUMPI PUSH2 0x81C PUSH2 0x761 JUMP JUMPDEST JUMPDEST PUSH1 0x1 DUP3 ADD SWAP1 POP SWAP2 SWAP1 POP JUMP JUMPDEST PUSH1 0x0 PUSH2 0x833 DUP3 PUSH2 0x4E5 JUMP JUMPDEST SWAP2 POP PUSH2 0x83E DUP4 PUSH2 0x4E5 JUMP JUMPDEST SWAP3 POP DUP3 PUSH32 0xFFFFFFFFFFFFFFFFFFFFFFFFFFFFFFFFFFFFFFFFFFFFFFFFFFFFFFFFFFFFFFFF SUB DUP3 GT ISZERO PUSH2 0x873 JUMPI PUSH2 0x872 PUSH2 0x761 JUMP JUMPDEST JUMPDEST DUP3 DUP3 ADD SWAP1 POP SWAP3 SWAP2 POP POP JUMP INVALID LOG2 PUSH5 0x6970667358 0x22 SLT KECCAK256 PUSH2 0x34 MSIZE MLOAD PUSH7 0xEE3E22D2D57410 0xC6 0xA9 RETURNDATASIZE DUP4 CALLDATACOPY LOG4 SWAP9 0x5C DUP7 REVERT 0x4C DUP6 SDIV 0xE 0xD8 0x22 PUSH9 0x54A764736F6C634300 ADDMOD MULMOD STOP CALLER "},"gasEstimates":{"creation":{"codeDepositCost":"445600","executionCost":"22569","totalCost":"468169"},"external":{"deposit(uint256)":"infinite","sendAll(address[],uint256[])":"infinite"},"internal":{"amountsSum(uint256[] memory)":"infinite","send(address payable,uint256)":"infinite"}},"methodIdentifiers":{"deposit(uint256)":"b6b55f25","sendAll(address[],uint256[])":"7156d672"}},"storageLayout":{"storage":[{"astId":3,"contract":"MultiSend.sol:MultiSend","label":"total_value","offset":0,"slot":"0","type":"t_uint256"}],"types":{"t_uint256":{"encoding":"inplace","label":"uint256","numberOfBytes":"32"}}},"userdoc":{"kind":"user","methods":{},"version":1}}